{"abi":[{"type":"constructor","inputs":[{"name":"chainId_","type":"uint256","internalType":"uint256"}],"stateMutability":"nonpayable"},{"type":"function","name":"DOMAIN_SEPARATOR","inputs":[],"outputs":[{"name":"","type":"bytes32","internalType":"bytes32"}],"stateMutability":"view"},{"type":"function","name":"PERMIT_TYPEHASH","inputs":[],"outputs":[{"name":"","type":"bytes32","internalType":"bytes32"}],"stateMutability":"view"},{"type":"function","name":"allowance","inputs":[{"name":"","type":"address","internalType":"address"},{"name":"","type":"address","internalType":"address"}],"outputs":[{"name":"","type":"uint256","internalType":"uint256"}],"stateMutability":"view"},{"type":"function","name":"approve","inputs":[{"name":"usr","type":"address","internalType":"address"},{"name":"wad","type":"uint256","internalType":"uint256"}],"outputs":[{"name":"","type":"bool","internalType":"bool"}],"stateMutability":"nonpayable"},{"type":"function","name":"balanceOf","inputs":[{"name":"","type":"address","internalType":"address"}],"outputs":[{"name":"","type":"uint256","internalType":"uint256"}],"stateMutability":"view"},{"type":"function","name":"burn","inputs":[{"name":"usr","type":"address","internalType":"address"},{"name":"wad","type":"uint256","internalType":"uint256"}],"outputs":[],"stateMutability":"nonpayable"},{"type":"function","name":"decimals","inputs":[],"outputs":[{"name":"","type":"uint8","internalType":"uint8"}],"stateMutability":"view"},{"type":"function","name":"deny","inputs":[{"name":"guy","type":"address","internalType":"address"}],"outputs":[],"stateMutability":"nonpayable"},{"type":"function","name":"mint","inputs":[{"name":"usr","type":"address","internalType":"address"},{"name":"wad","type":"uint256","internalType":"uint256"}],"outputs":[],"stateMutability":"nonpayable"},{"type":"function","name":"move","inputs":[{"name":"src","type":"address","internalType":"address"},{"name":"dst","type":"address","internalType":"address"},{"name":"wad","type":"uint256","internalType":"uint256"}],"outputs":[],"stateMutability":"nonpayable"},{"type":"function","name":"name","inputs":[],"outputs":[{"name":"","type":"string","internalType":"string"}],"stateMutability":"view"},{"type":"function","name":"nonces","inputs":[{"name":"","type":"address","internalType":"address"}],"outputs":[{"name":"","type":"uint256","internalType":"uint256"}],"stateMutability":"view"},{"type":"function","name":"permit","inputs":[{"name":"holder","type":"address","internalType":"address"},{"name":"spender","type":"address","internalType":"address"},{"name":"nonce","type":"uint256","internalType":"uint256"},{"name":"expiry","type":"uint256","internalType":"uint256"},{"name":"allowed","type":"bool","internalType":"bool"},{"name":"v","type":"uint8","internalType":"uint8"},{"name":"r","type":"bytes32","internalType":"bytes32"},{"name":"s","type":"bytes32","internalType":"bytes32"}],"outputs":[],"stateMutability":"nonpayable"},{"type":"function","name":"pull","inputs":[{"name":"usr","type":"address","internalType":"address"},{"name":"wad","type":"uint256","internalType":"uint256"}],"outputs":[],"stateMutability":"nonpayable"},{"type":"function","name":"push","inputs":[{"name":"usr","type":"address","internalType":"address"},{"name":"wad","type":"uint256","internalType":"uint256"}],"outputs":[],"stateMutability":"nonpayable"},{"type":"function","name":"rely","inputs":[{"name":"guy","type":"address","internalType":"address"}],"outputs":[],"stateMutability":"nonpayable"},{"type":"function","name":"symbol","inputs":[],"outputs":[{"name":"","type":"string","internalType":"string"}],"stateMutability":"view"},{"type":"function","name":"totalSupply","inputs":[],"outputs":[{"name":"","type":"uint256","internalType":"uint256"}],"stateMutability":"view"},{"type":"function","name":"transfer","inputs":[{"name":"dst","type":"address","internalType":"address"},{"name":"wad","type":"uint256","internalType":"uint256"}],"outputs":[{"name":"","type":"bool","internalType":"bool"}],"stateMutability":"nonpayable"},{"type":"function","name":"transferFrom","inputs":[{"name":"src","type":"address","internalType":"address"},{"name":"dst","type":"address","internalType":"address"},{"name":"wad","type":"uint256","internalType":"uint256"}],"outputs":[{"name":"","type":"bool","internalType":"bool"}],"stateMutability":"nonpayable"},{"type":"function","name":"version","inputs":[],"outputs":[{"name":"","type":"string","internalType":"string"}],"stateMutability":"view"},{"type":"function","name":"wards","inputs":[{"name":"","type":"address","internalType":"address"}],"outputs":[{"name":"","type":"uint256","internalType":"uint256"}],"stateMutability":"view"},{"type":"event","name":"Approval","inputs":[{"name":"src","type":"address","indexed":true,"internalType":"address"},{"name":"guy","type":"address","indexed":true,"internalType":"address"},{"name":"wad","type":"uint256","indexed":false,"internalType":"uint256"}],"anonymous":false},{"type":"event","name":"LogNote","inputs":[{"name":"sig","type":"bytes4","indexed":true,"internalType":"bytes4"},{"name":"usr","type":"address","indexed":true,"internalType":"address"},{"name":"arg1","type":"bytes32","indexed":true,"internalType":"bytes32"},{"name":"arg2","type":"bytes32","indexed":true,"internalType":"bytes32"},{"name":"data","type":"bytes","indexed":false,"internalType":"bytes"}],"anonymous":true},{"type":"event","name":"Transfer","inputs":[{"name":"src","type":"address","indexed":true,"internalType":"address"},{"name":"dst","type":"address","indexed":true,"internalType":"address"},{"name":"wad","type":"uint256","indexed":false,"internalType":"uint256"}],"anonymous":false}],"bytecode":{"object":"0x608060405234801562000010575f80fd5b50604051620022a8380380620022a883398181016040528101906200003691906200018a565b60015f803373ffffffffffffffffffffffffffffffffffffffff1673ffffffffffffffffffffffffffffffffffffffff1681526020019081526020015f20819055507f8b73c3c69bb8fe3d512ecc4cf759cc79239f7b179b0ffacaa9a75d522b39400f6040518060400160405280600e81526020017f44616920537461626c65636f696e000000000000000000000000000000000000815250805190602001206040518060400160405280600181526020017f31000000000000000000000000000000000000000000000000000000000000008152508051906020012083306040516020016200012b95949392919062000228565b604051602081830303815290604052805190602001206005819055505062000283565b5f80fd5b5f819050919050565b620001668162000152565b811462000171575f80fd5b50565b5f8151905062000184816200015b565b92915050565b5f60208284031215620001a257620001a16200014e565b5b5f620001b18482850162000174565b91505092915050565b5f819050919050565b620001ce81620001ba565b82525050565b620001df8162000152565b82525050565b5f73ffffffffffffffffffffffffffffffffffffffff82169050919050565b5f6200021082620001e5565b9050919050565b620002228162000204565b82525050565b5f60a0820190506200023d5f830188620001c3565b6200024c6020830187620001c3565b6200025b6040830186620001c3565b6200026a6060830185620001d4565b62000279608083018462000217565b9695505050505050565b61201780620002915f395ff3fe608060405234801561000f575f80fd5b5060043610610140575f3560e01c80637ecebe00116100b6578063a9059cbb1161007a578063a9059cbb14610362578063b753a98c14610392578063bb35783b146103ae578063bf353dbb146103ca578063dd62ed3e146103fa578063f2d5d56b1461042a57610140565b80637ecebe00146102c05780638fcbaf0c146102f057806395d89b411461030c5780639c52a7f11461032a5780639dc29fac1461034657610140565b8063313ce56711610108578063313ce567146101fe5780633644e5151461021c57806340c10f191461023a57806354fd4d501461025657806365fae35e1461027457806370a082311461029057610140565b806306fdde0314610144578063095ea7b31461016257806318160ddd1461019257806323b872dd146101b057806330adf81f146101e0575b5f80fd5b61014c610446565b604051610159919061173d565b60405180910390f35b61017c600480360381019061017791906117ee565b61047f565b6040516101899190611846565b60405180910390f35b61019a61056c565b6040516101a7919061186e565b60405180910390f35b6101ca60048036038101906101c59190611887565b610572565b6040516101d79190611846565b60405180910390f35b6101e8610a06565b6040516101f591906118ef565b60405180910390f35b610206610a2c565b6040516102139190611923565b60405180910390f35b610224610a31565b60405161023191906118ef565b60405180910390f35b610254600480360381019061024f91906117ee565b610a37565b005b61025e610bb9565b60405161026b919061173d565b60405180910390f35b61028e6004803603810190610289919061193c565b610bf2565b005b6102aa60048036038101906102a5919061193c565b610ce7565b6040516102b7919061186e565b60405180910390f35b6102da60048036038101906102d5919061193c565b610cfc565b6040516102e7919061186e565b60405180910390f35b61030a600480360381019061030591906119e5565b610d11565b005b6103146110b5565b604051610321919061173d565b60405180910390f35b610344600480360381019061033f919061193c565b6110ee565b005b610360600480360381019061035b91906117ee565b6111e2565b005b61037c600480360381019061037791906117ee565b6115f8565b6040516103899190611846565b60405180910390f35b6103ac60048036038101906103a791906117ee565b61160c565b005b6103c860048036038101906103c39190611887565b61161c565b005b6103e460048036038101906103df919061193c565b61162d565b6040516103f1919061186e565b60405180910390f35b610414600480360381019061040f9190611a96565b611641565b604051610421919061186e565b60405180910390f35b610444600480360381019061043f91906117ee565b611661565b005b6040518060400160405280600e81526020017f44616920537461626c65636f696e00000000000000000000000000000000000081525081565b5f8160035f3373ffffffffffffffffffffffffffffffffffffffff1673ffffffffffffffffffffffffffffffffffffffff1681526020019081526020015f205f8573ffffffffffffffffffffffffffffffffffffffff1673ffffffffffffffffffffffffffffffffffffffff1681526020019081526020015f20819055508273ffffffffffffffffffffffffffffffffffffffff163373ffffffffffffffffffffffffffffffffffffffff167f8c5be1e5ebec7d5bd14f71427d1e84f3dd0314c0f7b2291e5b200ac8c7c3b9258460405161055a919061186e565b60405180910390a36001905092915050565b60015481565b5f8160025f8673ffffffffffffffffffffffffffffffffffffffff1673ffffffffffffffffffffffffffffffffffffffff1681526020019081526020015f205410156105f3576040517f08c379a00000000000000000000000000000000000000000000000000000000081526004016105ea90611b1e565b60405180910390fd5b3373ffffffffffffffffffffffffffffffffffffffff168473ffffffffffffffffffffffffffffffffffffffff16141580156106c757507fffffffffffffffffffffffffffffffffffffffffffffffffffffffffffffffff60035f8673ffffffffffffffffffffffffffffffffffffffff1673ffffffffffffffffffffffffffffffffffffffff1681526020019081526020015f205f3373ffffffffffffffffffffffffffffffffffffffff1673ffffffffffffffffffffffffffffffffffffffff1681526020019081526020015f205414155b15610886578160035f8673ffffffffffffffffffffffffffffffffffffffff1673ffffffffffffffffffffffffffffffffffffffff1681526020019081526020015f205f3373ffffffffffffffffffffffffffffffffffffffff1673ffffffffffffffffffffffffffffffffffffffff1681526020019081526020015f20541015610787576040517f08c379a000000000000000000000000000000000000000000000000000000000815260040161077e90611b86565b60405180910390fd5b61080960035f8673ffffffffffffffffffffffffffffffffffffffff1673ffffffffffffffffffffffffffffffffffffffff1681526020019081526020015f205f3373ffffffffffffffffffffffffffffffffffffffff1673ffffffffffffffffffffffffffffffffffffffff1681526020019081526020015f205483611671565b60035f8673ffffffffffffffffffffffffffffffffffffffff1673ffffffffffffffffffffffffffffffffffffffff1681526020019081526020015f205f3373ffffffffffffffffffffffffffffffffffffffff1673ffffffffffffffffffffffffffffffffffffffff1681526020019081526020015f20819055505b6108cd60025f8673ffffffffffffffffffffffffffffffffffffffff1673ffffffffffffffffffffffffffffffffffffffff1681526020019081526020015f205483611671565b60025f8673ffffffffffffffffffffffffffffffffffffffff1673ffffffffffffffffffffffffffffffffffffffff1681526020019081526020015f208190555061095560025f8573ffffffffffffffffffffffffffffffffffffffff1673ffffffffffffffffffffffffffffffffffffffff1681526020019081526020015f205483611692565b60025f8573ffffffffffffffffffffffffffffffffffffffff1673ffffffffffffffffffffffffffffffffffffffff1681526020019081526020015f20819055508273ffffffffffffffffffffffffffffffffffffffff168473ffffffffffffffffffffffffffffffffffffffff167fddf252ad1be2c89b69c2b068fc378daa952ba7f163c4a11628f55a4df523b3ef846040516109f3919061186e565b60405180910390a3600190509392505050565b7fea2aa0a1be11a07ed86d755c93467f4f82362b452371d1ba94d1715123511acb5f1b81565b601281565b60055481565b60015f803373ffffffffffffffffffffffffffffffffffffffff1673ffffffffffffffffffffffffffffffffffffffff1681526020019081526020015f205414610ab6576040517f08c379a0000000000000000000000000000000000000000000000000000000008152600401610aad90611bee565b60405180910390fd5b610afd60025f8473ffffffffffffffffffffffffffffffffffffffff1673ffffffffffffffffffffffffffffffffffffffff1681526020019081526020015f205482611692565b60025f8473ffffffffffffffffffffffffffffffffffffffff1673ffffffffffffffffffffffffffffffffffffffff1681526020019081526020015f2081905550610b4a60015482611692565b6001819055508173ffffffffffffffffffffffffffffffffffffffff165f73ffffffffffffffffffffffffffffffffffffffff167fddf252ad1be2c89b69c2b068fc378daa952ba7f163c4a11628f55a4df523b3ef83604051610bad919061186e565b60405180910390a35050565b6040518060400160405280600181526020017f310000000000000000000000000000000000000000000000000000000000000081525081565b60015f803373ffffffffffffffffffffffffffffffffffffffff1673ffffffffffffffffffffffffffffffffffffffff1681526020019081526020015f205414610c71576040517f08c379a0000000000000000000000000000000000000000000000000000000008152600401610c6890611bee565b60405180910390fd5b60015f808373ffffffffffffffffffffffffffffffffffffffff1673ffffffffffffffffffffffffffffffffffffffff1681526020019081526020015f20819055505961012081016040526020815260e0602082015260e05f6040830137602435600435335f3560e01c60e01b61012085a45050565b6002602052805f5260405f205f915090505481565b6004602052805f5260405f205f915090505481565b5f6005547fea2aa0a1be11a07ed86d755c93467f4f82362b452371d1ba94d1715123511acb5f1b8a8a8a8a8a604051602001610d5296959493929190611c1b565b60405160208183030381529060405280519060200120604051602001610d79929190611cee565b6040516020818303038152906040528051906020012090505f73ffffffffffffffffffffffffffffffffffffffff168973ffffffffffffffffffffffffffffffffffffffff1603610dff576040517f08c379a0000000000000000000000000000000000000000000000000000000008152600401610df690611d6e565b60405180910390fd5b6001818585856040515f8152602001604052604051610e219493929190611d8c565b6020604051602081039080840390855afa158015610e41573d5f803e3d5ffd5b5050506020604051035173ffffffffffffffffffffffffffffffffffffffff168973ffffffffffffffffffffffffffffffffffffffff1614610eb8576040517f08c379a0000000000000000000000000000000000000000000000000000000008152600401610eaf90611e19565b60405180910390fd5b5f861480610ec65750854211155b610f05576040517f08c379a0000000000000000000000000000000000000000000000000000000008152600401610efc90611e81565b60405180910390fd5b60045f8a73ffffffffffffffffffffffffffffffffffffffff1673ffffffffffffffffffffffffffffffffffffffff1681526020019081526020015f205f815480929190610f5290611ecc565b919050558714610f97576040517f08c379a0000000000000000000000000000000000000000000000000000000008152600401610f8e90611f5d565b60405180910390fd5b5f85610fa3575f610fc5565b7fffffffffffffffffffffffffffffffffffffffffffffffffffffffffffffffff5b90508060035f8c73ffffffffffffffffffffffffffffffffffffffff1673ffffffffffffffffffffffffffffffffffffffff1681526020019081526020015f205f8b73ffffffffffffffffffffffffffffffffffffffff1673ffffffffffffffffffffffffffffffffffffffff1681526020019081526020015f20819055508873ffffffffffffffffffffffffffffffffffffffff168a73ffffffffffffffffffffffffffffffffffffffff167f8c5be1e5ebec7d5bd14f71427d1e84f3dd0314c0f7b2291e5b200ac8c7c3b925836040516110a1919061186e565b60405180910390a350505050505050505050565b6040518060400160405280600381526020017f444149000000000000000000000000000000000000000000000000000000000081525081565b60015f803373ffffffffffffffffffffffffffffffffffffffff1673ffffffffffffffffffffffffffffffffffffffff1681526020019081526020015f20541461116d576040517f08c379a000000000000000000000000000000000000000000000000000000000815260040161116490611bee565b60405180910390fd5b5f805f8373ffffffffffffffffffffffffffffffffffffffff1673ffffffffffffffffffffffffffffffffffffffff1681526020019081526020015f20819055505961012081016040526020815260e0602082015260e05f6040830137602435600435335f3560e01c60e01b61012085a45050565b8060025f8473ffffffffffffffffffffffffffffffffffffffff1673ffffffffffffffffffffffffffffffffffffffff1681526020019081526020015f20541015611262576040517f08c379a000000000000000000000000000000000000000000000000000000000815260040161125990611b1e565b60405180910390fd5b3373ffffffffffffffffffffffffffffffffffffffff168273ffffffffffffffffffffffffffffffffffffffff161415801561133657507fffffffffffffffffffffffffffffffffffffffffffffffffffffffffffffffff60035f8473ffffffffffffffffffffffffffffffffffffffff1673ffffffffffffffffffffffffffffffffffffffff1681526020019081526020015f205f3373ffffffffffffffffffffffffffffffffffffffff1673ffffffffffffffffffffffffffffffffffffffff1681526020019081526020015f205414155b156114f5578060035f8473ffffffffffffffffffffffffffffffffffffffff1673ffffffffffffffffffffffffffffffffffffffff1681526020019081526020015f205f3373ffffffffffffffffffffffffffffffffffffffff1673ffffffffffffffffffffffffffffffffffffffff1681526020019081526020015f205410156113f6576040517f08c379a00000000000000000000000000000000000000000000000000000000081526004016113ed90611b86565b60405180910390fd5b61147860035f8473ffffffffffffffffffffffffffffffffffffffff1673ffffffffffffffffffffffffffffffffffffffff1681526020019081526020015f205f3373ffffffffffffffffffffffffffffffffffffffff1673ffffffffffffffffffffffffffffffffffffffff1681526020019081526020015f205482611671565b60035f8473ffffffffffffffffffffffffffffffffffffffff1673ffffffffffffffffffffffffffffffffffffffff1681526020019081526020015f205f3373ffffffffffffffffffffffffffffffffffffffff1673ffffffffffffffffffffffffffffffffffffffff1681526020019081526020015f20819055505b61153c60025f8473ffffffffffffffffffffffffffffffffffffffff1673ffffffffffffffffffffffffffffffffffffffff1681526020019081526020015f205482611671565b60025f8473ffffffffffffffffffffffffffffffffffffffff1673ffffffffffffffffffffffffffffffffffffffff1681526020019081526020015f208190555061158960015482611671565b6001819055505f73ffffffffffffffffffffffffffffffffffffffff168273ffffffffffffffffffffffffffffffffffffffff167fddf252ad1be2c89b69c2b068fc378daa952ba7f163c4a11628f55a4df523b3ef836040516115ec919061186e565b60405180910390a35050565b5f611604338484610572565b905092915050565b611617338383610572565b505050565b611627838383610572565b50505050565b5f602052805f5260405f205f915090505481565b6003602052815f5260405f20602052805f5260405f205f91509150505481565b61166c823383610572565b505050565b5f82828461167f9190611f7b565b915081111561168c575f80fd5b92915050565b5f8282846116a09190611fae565b91508110156116ad575f80fd5b92915050565b5f81519050919050565b5f82825260208201905092915050565b5f5b838110156116ea5780820151818401526020810190506116cf565b5f8484015250505050565b5f601f19601f8301169050919050565b5f61170f826116b3565b61171981856116bd565b93506117298185602086016116cd565b611732816116f5565b840191505092915050565b5f6020820190508181035f8301526117558184611705565b905092915050565b5f80fd5b5f73ffffffffffffffffffffffffffffffffffffffff82169050919050565b5f61178a82611761565b9050919050565b61179a81611780565b81146117a4575f80fd5b50565b5f813590506117b581611791565b92915050565b5f819050919050565b6117cd816117bb565b81146117d7575f80fd5b50565b5f813590506117e8816117c4565b92915050565b5f80604083850312156118045761180361175d565b5b5f611811858286016117a7565b9250506020611822858286016117da565b9150509250929050565b5f8115159050919050565b6118408161182c565b82525050565b5f6020820190506118595f830184611837565b92915050565b611868816117bb565b82525050565b5f6020820190506118815f83018461185f565b92915050565b5f805f6060848603121561189e5761189d61175d565b5b5f6118ab868287016117a7565b93505060206118bc868287016117a7565b92505060406118cd868287016117da565b9150509250925092565b5f819050919050565b6118e9816118d7565b82525050565b5f6020820190506119025f8301846118e0565b92915050565b5f60ff82169050919050565b61191d81611908565b82525050565b5f6020820190506119365f830184611914565b92915050565b5f602082840312156119515761195061175d565b5b5f61195e848285016117a7565b91505092915050565b6119708161182c565b811461197a575f80fd5b50565b5f8135905061198b81611967565b92915050565b61199a81611908565b81146119a4575f80fd5b50565b5f813590506119b581611991565b92915050565b6119c4816118d7565b81146119ce575f80fd5b50565b5f813590506119df816119bb565b92915050565b5f805f805f805f80610100898b031215611a0257611a0161175d565b5b5f611a0f8b828c016117a7565b9850506020611a208b828c016117a7565b9750506040611a318b828c016117da565b9650506060611a428b828c016117da565b9550506080611a538b828c0161197d565b94505060a0611a648b828c016119a7565b93505060c0611a758b828c016119d1565b92505060e0611a868b828c016119d1565b9150509295985092959890939650565b5f8060408385031215611aac57611aab61175d565b5b5f611ab9858286016117a7565b9250506020611aca858286016117a7565b9150509250929050565b7f4461692f696e73756666696369656e742d62616c616e636500000000000000005f82015250565b5f611b086018836116bd565b9150611b1382611ad4565b602082019050919050565b5f6020820190508181035f830152611b3581611afc565b9050919050565b7f4461692f696e73756666696369656e742d616c6c6f77616e63650000000000005f82015250565b5f611b70601a836116bd565b9150611b7b82611b3c565b602082019050919050565b5f6020820190508181035f830152611b9d81611b64565b9050919050565b7f4461692f6e6f742d617574686f72697a656400000000000000000000000000005f82015250565b5f611bd86012836116bd565b9150611be382611ba4565b602082019050919050565b5f6020820190508181035f830152611c0581611bcc565b9050919050565b611c1581611780565b82525050565b5f60c082019050611c2e5f8301896118e0565b611c3b6020830188611c0c565b611c486040830187611c0c565b611c55606083018661185f565b611c62608083018561185f565b611c6f60a0830184611837565b979650505050505050565b5f81905092915050565b7f19010000000000000000000000000000000000000000000000000000000000005f82015250565b5f611cb8600283611c7a565b9150611cc382611c84565b600282019050919050565b5f819050919050565b611ce8611ce3826118d7565b611cce565b82525050565b5f611cf882611cac565b9150611d048285611cd7565b602082019150611d148284611cd7565b6020820191508190509392505050565b7f4461692f696e76616c69642d616464726573732d3000000000000000000000005f82015250565b5f611d586015836116bd565b9150611d6382611d24565b602082019050919050565b5f6020820190508181035f830152611d8581611d4c565b9050919050565b5f608082019050611d9f5f8301876118e0565b611dac6020830186611914565b611db960408301856118e0565b611dc660608301846118e0565b95945050505050565b7f4461692f696e76616c69642d7065726d697400000000000000000000000000005f82015250565b5f611e036012836116bd565b9150611e0e82611dcf565b602082019050919050565b5f6020820190508181035f830152611e3081611df7565b9050919050565b7f4461692f7065726d69742d6578706972656400000000000000000000000000005f82015250565b5f611e6b6012836116bd565b9150611e7682611e37565b602082019050919050565b5f6020820190508181035f830152611e9881611e5f565b9050919050565b7f4e487b71000000000000000000000000000000000000000000000000000000005f52601160045260245ffd5b5f611ed6826117bb565b91507fffffffffffffffffffffffffffffffffffffffffffffffffffffffffffffffff8203611f0857611f07611e9f565b5b600182019050919050565b7f4461692f696e76616c69642d6e6f6e63650000000000000000000000000000005f82015250565b5f611f476011836116bd565b9150611f5282611f13565b602082019050919050565b5f6020820190508181035f830152611f7481611f3b565b9050919050565b5f611f85826117bb565b9150611f90836117bb565b9250828203905081811115611fa857611fa7611e9f565b5b92915050565b5f611fb8826117bb565b9150611fc3836117bb565b9250828201905080821115611fdb57611fda611e9f565b5b9291505056fea264697066735822122083a2caab17ba1c72d297c4e2fcaddd92f9d22c772070a2c5cf780153d595ce8164736f6c63430008140033","linkReferences":{}},"methodIdentifiers":{"DOMAIN_SEPARATOR()":"3644e515","PERMIT_TYPEHASH()":"30adf81f","allowance(address,address)":"dd62ed3e","approve(address,uint256)":"095ea7b3","balanceOf(address)":"70a08231","burn(address,uint256)":"9dc29fac","decimals()":"313ce567","deny(address)":"9c52a7f1","mint(address,uint256)":"40c10f19","move(address,address,uint256)":"bb35783b","name()":"06fdde03","nonces(address)":"7ecebe00","permit(address,address,uint256,uint256,bool,uint8,bytes32,bytes32)":"8fcbaf0c","pull(address,uint256)":"f2d5d56b","push(address,uint256)":"b753a98c","rely(address)":"65fae35e","symbol()":"95d89b41","totalSupply()":"18160ddd","transfer(address,uint256)":"a9059cbb","transferFrom(address,address,uint256)":"23b872dd","version()":"54fd4d50","wards(address)":"bf353dbb"},"id":16}