{"abi":[{"type":"constructor","inputs":[{"name":"_name","type":"string","internalType":"string"},{"name":"_symbol","type":"string","internalType":"string"},{"name":"_decimals","type":"uint8","internalType":"uint8"}],"stateMutability":"nonpayable"},{"type":"function","name":"DOMAIN_SEPARATOR","inputs":[],"outputs":[{"name":"","type":"bytes32","internalType":"bytes32"}],"stateMutability":"view"},{"type":"function","name":"allowance","inputs":[{"name":"","type":"address","internalType":"address"},{"name":"","type":"address","internalType":"address"}],"outputs":[{"name":"","type":"uint256","internalType":"uint256"}],"stateMutability":"view"},{"type":"function","name":"approve","inputs":[{"name":"spender","type":"address","internalType":"address"},{"name":"amount","type":"uint256","internalType":"uint256"}],"outputs":[{"name":"","type":"bool","internalType":"bool"}],"stateMutability":"nonpayable"},{"type":"function","name":"balanceOf","inputs":[{"name":"","type":"address","internalType":"address"}],"outputs":[{"name":"","type":"uint256","internalType":"uint256"}],"stateMutability":"view"},{"type":"function","name":"decimals","inputs":[],"outputs":[{"name":"","type":"uint8","internalType":"uint8"}],"stateMutability":"view"},{"type":"function","name":"mint","inputs":[{"name":"to","type":"address","internalType":"address"},{"name":"amount","type":"uint256","internalType":"uint256"}],"outputs":[],"stateMutability":"nonpayable"},{"type":"function","name":"name","inputs":[],"outputs":[{"name":"","type":"string","internalType":"string"}],"stateMutability":"view"},{"type":"function","name":"nonces","inputs":[{"name":"","type":"address","internalType":"address"}],"outputs":[{"name":"","type":"uint256","internalType":"uint256"}],"stateMutability":"view"},{"type":"function","name":"permit","inputs":[{"name":"holder","type":"address","internalType":"address"},{"name":"spender","type":"address","internalType":"address"},{"name":"nonce","type":"uint256","internalType":"uint256"},{"name":"deadline","type":"uint256","internalType":"uint256"},{"name":"allowed","type":"bool","internalType":"bool"},{"name":"v","type":"uint8","internalType":"uint8"},{"name":"r","type":"bytes32","internalType":"bytes32"},{"name":"s","type":"bytes32","internalType":"bytes32"}],"outputs":[],"stateMutability":"nonpayable"},{"type":"function","name":"symbol","inputs":[],"outputs":[{"name":"","type":"string","internalType":"string"}],"stateMutability":"view"},{"type":"function","name":"totalSupply","inputs":[],"outputs":[{"name":"","type":"uint256","internalType":"uint256"}],"stateMutability":"view"},{"type":"function","name":"transfer","inputs":[{"name":"to","type":"address","internalType":"address"},{"name":"amount","type":"uint256","internalType":"uint256"}],"outputs":[{"name":"","type":"bool","internalType":"bool"}],"stateMutability":"nonpayable"},{"type":"function","name":"transferFrom","inputs":[{"name":"from","type":"address","internalType":"address"},{"name":"to","type":"address","internalType":"address"},{"name":"amount","type":"uint256","internalType":"uint256"}],"outputs":[{"name":"","type":"bool","internalType":"bool"}],"stateMutability":"nonpayable"},{"type":"function","name":"version","inputs":[],"outputs":[{"name":"","type":"string","internalType":"string"}],"stateMutability":"pure"}],"bytecode":{"object":"0x608060405234801562000010575f80fd5b5060405162001a4f38038062001a4f8339818101604052810190620000369190620002d6565b825f9081620000469190620005a4565b508160019081620000589190620005a4565b508060025f6101000a81548160ff021916908360ff1602179055507f8b73c3c69bb8fe3d512ecc4cf759cc79239f7b179b0ffacaa9a75d522b39400f83805190602001206040518060400160405280600181526020017f3100000000000000000000000000000000000000000000000000000000000000815250805190602001204630604051602001620000f1959493929190620006f6565b6040516020818303038152906040528051906020012060078190555050505062000751565b5f604051905090565b5f80fd5b5f80fd5b5f80fd5b5f80fd5b5f601f19601f8301169050919050565b7f4e487b71000000000000000000000000000000000000000000000000000000005f52604160045260245ffd5b62000177826200012f565b810181811067ffffffffffffffff821117156200019957620001986200013f565b5b80604052505050565b5f620001ad62000116565b9050620001bb82826200016c565b919050565b5f67ffffffffffffffff821115620001dd57620001dc6200013f565b5b620001e8826200012f565b9050602081019050919050565b5f5b8381101562000214578082015181840152602081019050620001f7565b5f8484015250505050565b5f620002356200022f84620001c0565b620001a2565b9050828152602081018484840111156200025457620002536200012b565b5b62000261848285620001f5565b509392505050565b5f82601f83011262000280576200027f62000127565b5b8151620002928482602086016200021f565b91505092915050565b5f60ff82169050919050565b620002b2816200029b565b8114620002bd575f80fd5b50565b5f81519050620002d081620002a7565b92915050565b5f805f60608486031215620002f057620002ef6200011f565b5b5f84015167ffffffffffffffff81111562000310576200030f62000123565b5b6200031e8682870162000269565b935050602084015167ffffffffffffffff81111562000342576200034162000123565b5b620003508682870162000269565b92505060406200036386828701620002c0565b9150509250925092565b5f81519050919050565b7f4e487b71000000000000000000000000000000000000000000000000000000005f52602260045260245ffd5b5f6002820490506001821680620003bc57607f821691505b602082108103620003d257620003d162000377565b5b50919050565b5f819050815f5260205f209050919050565b5f6020601f8301049050919050565b5f82821b905092915050565b5f60088302620004367fffffffffffffffffffffffffffffffffffffffffffffffffffffffffffffffff82620003f9565b620004428683620003f9565b95508019841693508086168417925050509392505050565b5f819050919050565b5f819050919050565b5f6200048c6200048662000480846200045a565b62000463565b6200045a565b9050919050565b5f819050919050565b620004a7836200046c565b620004bf620004b68262000493565b84845462000405565b825550505050565b5f90565b620004d5620004c7565b620004e28184846200049c565b505050565b5b818110156200050957620004fd5f82620004cb565b600181019050620004e8565b5050565b601f82111562000558576200052281620003d8565b6200052d84620003ea565b810160208510156200053d578190505b620005556200054c85620003ea565b830182620004e7565b50505b505050565b5f82821c905092915050565b5f6200057a5f19846008026200055d565b1980831691505092915050565b5f62000594838362000569565b9150826002028217905092915050565b620005af826200036d565b67ffffffffffffffff811115620005cb57620005ca6200013f565b5b620005d78254620003a4565b620005e48282856200050d565b5f60209050601f8311600181146200061a575f841562000605578287015190505b62000611858262000587565b86555062000680565b601f1984166200062a86620003d8565b5f5b8281101562000653578489015182556001820191506020850194506020810190506200062c565b868310156200067357848901516200066f601f89168262000569565b8355505b6001600288020188555050505b505050505050565b5f819050919050565b6200069c8162000688565b82525050565b620006ad816200045a565b82525050565b5f73ffffffffffffffffffffffffffffffffffffffff82169050919050565b5f620006de82620006b3565b9050919050565b620006f081620006d2565b82525050565b5f60a0820190506200070b5f83018862000691565b6200071a602083018762000691565b62000729604083018662000691565b620007386060830185620006a2565b620007476080830184620006e5565b9695505050505050565b6112f0806200075f5f395ff3fe608060405234801561000f575f80fd5b50600436106100e8575f3560e01c806354fd4d501161008a5780638fcbaf0c116100645780638fcbaf0c1461025e57806395d89b411461027a578063a9059cbb14610298578063dd62ed3e146102c8576100e8565b806354fd4d50146101e057806370a08231146101fe5780637ecebe001461022e576100e8565b806323b872dd116100c657806323b872dd14610158578063313ce567146101885780633644e515146101a657806340c10f19146101c4576100e8565b806306fdde03146100ec578063095ea7b31461010a57806318160ddd1461013a575b5f80fd5b6100f46102f8565b6040516101019190610b59565b60405180910390f35b610124600480360381019061011f9190610c0a565b610383565b6040516101319190610c62565b60405180910390f35b61014261040b565b60405161014f9190610c8a565b60405180910390f35b610172600480360381019061016d9190610ca3565b610411565b60405161017f9190610c62565b60405180910390f35b610190610624565b60405161019d9190610d0e565b60405180910390f35b6101ae610636565b6040516101bb9190610d3f565b60405180910390f35b6101de60048036038101906101d99190610c0a565b61063c565b005b6101e86106ab565b6040516101f59190610b59565b60405180910390f35b61021860048036038101906102139190610d58565b6106e8565b6040516102259190610c8a565b60405180910390f35b61024860048036038101906102439190610d58565b6106fd565b6040516102559190610c8a565b60405180910390f35b61027860048036038101906102739190610e01565b610712565b005b610282610a0f565b60405161028f9190610b59565b60405180910390f35b6102b260048036038101906102ad9190610c0a565b610a9b565b6040516102bf9190610c62565b60405180910390f35b6102e260048036038101906102dd9190610eb2565b610aaf565b6040516102ef9190610c8a565b60405180910390f35b5f805461030490610f1d565b80601f016020809104026020016040519081016040528092919081815260200182805461033090610f1d565b801561037b5780601f106103525761010080835404028352916020019161037b565b820191905f5260205f20905b81548152906001019060200180831161035e57829003601f168201915b505050505081565b5f8160055f3373ffffffffffffffffffffffffffffffffffffffff1673ffffffffffffffffffffffffffffffffffffffff1681526020019081526020015f205f8573ffffffffffffffffffffffffffffffffffffffff1673ffffffffffffffffffffffffffffffffffffffff1681526020019081526020015f20819055506001905092915050565b60035481565b5f3373ffffffffffffffffffffffffffffffffffffffff168473ffffffffffffffffffffffffffffffffffffffff1614610573575f60055f8673ffffffffffffffffffffffffffffffffffffffff1673ffffffffffffffffffffffffffffffffffffffff1681526020019081526020015f205f3373ffffffffffffffffffffffffffffffffffffffff1673ffffffffffffffffffffffffffffffffffffffff1681526020019081526020015f205490507fffffffffffffffffffffffffffffffffffffffffffffffffffffffffffffffff81146105715782816104f49190610f7a565b60055f8773ffffffffffffffffffffffffffffffffffffffff1673ffffffffffffffffffffffffffffffffffffffff1681526020019081526020015f205f3373ffffffffffffffffffffffffffffffffffffffff1673ffffffffffffffffffffffffffffffffffffffff1681526020019081526020015f20819055505b505b8160045f8673ffffffffffffffffffffffffffffffffffffffff1673ffffffffffffffffffffffffffffffffffffffff1681526020019081526020015f205f8282546105bf9190610f7a565b925050819055508160045f8573ffffffffffffffffffffffffffffffffffffffff1673ffffffffffffffffffffffffffffffffffffffff1681526020019081526020015f205f8282546106129190610fad565b92505081905550600190509392505050565b60025f9054906101000a900460ff1681565b60075481565b8060035f82825461064d9190610fad565b925050819055508060045f8473ffffffffffffffffffffffffffffffffffffffff1673ffffffffffffffffffffffffffffffffffffffff1681526020019081526020015f205f8282546106a09190610fad565b925050819055505050565b60606040518060400160405280600181526020017f3100000000000000000000000000000000000000000000000000000000000000815250905090565b6004602052805f5260405f205f915090505481565b6006602052805f5260405f205f915090505481565b42851015610755576040517f08c379a000000000000000000000000000000000000000000000000000000000815260040161074c9061102a565b60405180910390fd5b60065f8973ffffffffffffffffffffffffffffffffffffffff1673ffffffffffffffffffffffffffffffffffffffff1681526020019081526020015f205f8154809291906107a290611048565b9190505586146107e7576040517f08c379a00000000000000000000000000000000000000000000000000000000081526004016107de906110d9565b60405180910390fd5b5f6007547f98774311fa3e9a0cb53e9f1be1e582b0a5aa38b4da132393a89ae11fa840e9818a8a8a8a8a60405160200161082696959493929190611106565b6040516020818303038152906040528051906020012060405160200161084d9291906111d9565b6040516020818303038152906040528051906020012090505f6001828686866040515f8152602001604052604051610888949392919061120f565b6020604051602081039080840390855afa1580156108a8573d5f803e3d5ffd5b5050506020604051035190505f73ffffffffffffffffffffffffffffffffffffffff168173ffffffffffffffffffffffffffffffffffffffff161415801561091b57508973ffffffffffffffffffffffffffffffffffffffff168173ffffffffffffffffffffffffffffffffffffffff16145b61095a576040517f08c379a00000000000000000000000000000000000000000000000000000000081526004016109519061129c565b60405180910390fd5b85610965575f610987565b7fffffffffffffffffffffffffffffffffffffffffffffffffffffffffffffffff5b60055f8c73ffffffffffffffffffffffffffffffffffffffff1673ffffffffffffffffffffffffffffffffffffffff1681526020019081526020015f205f8b73ffffffffffffffffffffffffffffffffffffffff1673ffffffffffffffffffffffffffffffffffffffff1681526020019081526020015f208190555050505050505050505050565b60018054610a1c90610f1d565b80601f0160208091040260200160405190810160405280929190818152602001828054610a4890610f1d565b8015610a935780601f10610a6a57610100808354040283529160200191610a93565b820191905f5260205f20905b815481529060010190602001808311610a7657829003601f168201915b505050505081565b5f610aa7338484610411565b905092915050565b6005602052815f5260405f20602052805f5260405f205f91509150505481565b5f81519050919050565b5f82825260208201905092915050565b5f5b83811015610b06578082015181840152602081019050610aeb565b5f8484015250505050565b5f601f19601f8301169050919050565b5f610b2b82610acf565b610b358185610ad9565b9350610b45818560208601610ae9565b610b4e81610b11565b840191505092915050565b5f6020820190508181035f830152610b718184610b21565b905092915050565b5f80fd5b5f73ffffffffffffffffffffffffffffffffffffffff82169050919050565b5f610ba682610b7d565b9050919050565b610bb681610b9c565b8114610bc0575f80fd5b50565b5f81359050610bd181610bad565b92915050565b5f819050919050565b610be981610bd7565b8114610bf3575f80fd5b50565b5f81359050610c0481610be0565b92915050565b5f8060408385031215610c2057610c1f610b79565b5b5f610c2d85828601610bc3565b9250506020610c3e85828601610bf6565b9150509250929050565b5f8115159050919050565b610c5c81610c48565b82525050565b5f602082019050610c755f830184610c53565b92915050565b610c8481610bd7565b82525050565b5f602082019050610c9d5f830184610c7b565b92915050565b5f805f60608486031215610cba57610cb9610b79565b5b5f610cc786828701610bc3565b9350506020610cd886828701610bc3565b9250506040610ce986828701610bf6565b9150509250925092565b5f60ff82169050919050565b610d0881610cf3565b82525050565b5f602082019050610d215f830184610cff565b92915050565b5f819050919050565b610d3981610d27565b82525050565b5f602082019050610d525f830184610d30565b92915050565b5f60208284031215610d6d57610d6c610b79565b5b5f610d7a84828501610bc3565b91505092915050565b610d8c81610c48565b8114610d96575f80fd5b50565b5f81359050610da781610d83565b92915050565b610db681610cf3565b8114610dc0575f80fd5b50565b5f81359050610dd181610dad565b92915050565b610de081610d27565b8114610dea575f80fd5b50565b5f81359050610dfb81610dd7565b92915050565b5f805f805f805f80610100898b031215610e1e57610e1d610b79565b5b5f610e2b8b828c01610bc3565b9850506020610e3c8b828c01610bc3565b9750506040610e4d8b828c01610bf6565b9650506060610e5e8b828c01610bf6565b9550506080610e6f8b828c01610d99565b94505060a0610e808b828c01610dc3565b93505060c0610e918b828c01610ded565b92505060e0610ea28b828c01610ded565b9150509295985092959890939650565b5f8060408385031215610ec857610ec7610b79565b5b5f610ed585828601610bc3565b9250506020610ee685828601610bc3565b9150509250929050565b7f4e487b71000000000000000000000000000000000000000000000000000000005f52602260045260245ffd5b5f6002820490506001821680610f3457607f821691505b602082108103610f4757610f46610ef0565b5b50919050565b7f4e487b71000000000000000000000000000000000000000000000000000000005f52601160045260245ffd5b5f610f8482610bd7565b9150610f8f83610bd7565b9250828203905081811115610fa757610fa6610f4d565b5b92915050565b5f610fb782610bd7565b9150610fc283610bd7565b9250828201905080821115610fda57610fd9610f4d565b5b92915050565b7f5065726d697420657870697265640000000000000000000000000000000000005f82015250565b5f611014600e83610ad9565b915061101f82610fe0565b602082019050919050565b5f6020820190508181035f83015261104181611008565b9050919050565b5f61105282610bd7565b91507fffffffffffffffffffffffffffffffffffffffffffffffffffffffffffffffff820361108457611083610f4d565b5b600182019050919050565b7f496e76616c6964206e6f6e6365000000000000000000000000000000000000005f82015250565b5f6110c3600d83610ad9565b91506110ce8261108f565b602082019050919050565b5f6020820190508181035f8301526110f0816110b7565b9050919050565b61110081610b9c565b82525050565b5f60c0820190506111195f830189610d30565b61112660208301886110f7565b61113360408301876110f7565b6111406060830186610c7b565b61114d6080830185610c7b565b61115a60a0830184610c53565b979650505050505050565b5f81905092915050565b7f19010000000000000000000000000000000000000000000000000000000000005f82015250565b5f6111a3600283611165565b91506111ae8261116f565b600282019050919050565b5f819050919050565b6111d36111ce82610d27565b6111b9565b82525050565b5f6111e382611197565b91506111ef82856111c2565b6020820191506111ff82846111c2565b6020820191508190509392505050565b5f6080820190506112225f830187610d30565b61122f6020830186610cff565b61123c6040830185610d30565b6112496060830184610d30565b95945050505050565b7f496e76616c6964207369676e61747572650000000000000000000000000000005f82015250565b5f611286601183610ad9565b915061129182611252565b602082019050919050565b5f6020820190508181035f8301526112b38161127a565b905091905056fea26469706673582212208545a2c565f033f20ce23d5c13ee29df7f1d3bc17918eb7de180c91984d0671564736f6c63430008140033","linkReferences":{}},"methodIdentifiers":{"DOMAIN_SEPARATOR()":"3644e515","allowance(address,address)":"dd62ed3e","approve(address,uint256)":"095ea7b3","balanceOf(address)":"70a08231","decimals()":"313ce567","mint(address,uint256)":"40c10f19","name()":"06fdde03","nonces(address)":"7ecebe00","permit(address,address,uint256,uint256,bool,uint8,bytes32,bytes32)":"8fcbaf0c","symbol()":"95d89b41","totalSupply()":"18160ddd","transfer(address,uint256)":"a9059cbb","transferFrom(address,address,uint256)":"23b872dd","version()":"54fd4d50"},"id":28}