{"abi":[{"type":"constructor","inputs":[{"name":"_dealToken","type":"address","internalType":"address"}],"stateMutability":"nonpayable"},{"type":"function","name":"createProposal","inputs":[{"name":"_dealRequired","type":"uint256","internalType":"uint256"},{"name":"_payableAddress","type":"address","internalType":"address"},{"name":"_documentURI","type":"string","internalType":"string"}],"outputs":[{"name":"","type":"uint256","internalType":"uint256"}],"stateMutability":"nonpayable"},{"type":"function","name":"dealToken","inputs":[],"outputs":[{"name":"","type":"address","internalType":"contract IERC20"}],"stateMutability":"view"},{"type":"function","name":"fundProposal","inputs":[{"name":"_proposalId","type":"uint256","internalType":"uint256"},{"name":"_amount","type":"uint256","internalType":"uint256"}],"outputs":[],"stateMutability":"nonpayable"},{"type":"function","name":"getCurrentFunding","inputs":[{"name":"_proposalId","type":"uint256","internalType":"uint256"}],"outputs":[{"name":"","type":"uint256","internalType":"uint256"}],"stateMutability":"view"},{"type":"function","name":"getProposal","inputs":[{"name":"_proposalId","type":"uint256","internalType":"uint256"}],"outputs":[{"name":"dealRequired","type":"uint256","internalType":"uint256"},{"name":"dealReceived","type":"uint256","internalType":"uint256"},{"name":"payableAddress","type":"address","internalType":"address"},{"name":"documentURI","type":"string","internalType":"string"}],"stateMutability":"view"},{"type":"function","name":"proposalCount","inputs":[],"outputs":[{"name":"","type":"uint256","internalType":"uint256"}],"stateMutability":"view"},{"type":"function","name":"proposals","inputs":[{"name":"","type":"uint256","internalType":"uint256"}],"outputs":[{"name":"dealRequired","type":"uint256","internalType":"uint256"},{"name":"dealReceived","type":"uint256","internalType":"uint256"},{"name":"payableAddress","type":"address","internalType":"address"},{"name":"documentURI","type":"string","internalType":"string"}],"stateMutability":"view"},{"type":"event","name":"ProposalCreated","inputs":[{"name":"proposalId","type":"uint256","indexed":true,"internalType":"uint256"},{"name":"proposer","type":"address","indexed":true,"internalType":"address"},{"name":"dealRequired","type":"uint256","indexed":false,"internalType":"uint256"},{"name":"payableAddress","type":"address","indexed":false,"internalType":"address"},{"name":"documentURI","type":"string","indexed":false,"internalType":"string"}],"anonymous":false},{"type":"event","name":"ProposalFunded","inputs":[{"name":"proposalId","type":"uint256","indexed":true,"internalType":"uint256"},{"name":"funder","type":"address","indexed":true,"internalType":"address"},{"name":"amount","type":"uint256","indexed":false,"internalType":"uint256"},{"name":"totalFunded","type":"uint256","indexed":false,"internalType":"uint256"}],"anonymous":false}],"bytecode":{"object":"0x608060405234801562000010575f80fd5b5060405162001213380380620012138339818101604052810190620000369190620000e1565b805f806101000a81548173ffffffffffffffffffffffffffffffffffffffff021916908373ffffffffffffffffffffffffffffffffffffffff1602179055505062000111565b5f80fd5b5f73ffffffffffffffffffffffffffffffffffffffff82169050919050565b5f620000ab8262000080565b9050919050565b620000bd816200009f565b8114620000c8575f80fd5b50565b5f81519050620000db81620000b2565b92915050565b5f60208284031215620000f957620000f86200007c565b5b5f6200010884828501620000cb565b91505092915050565b6110f4806200011f5f395ff3fe608060405234801561000f575f80fd5b506004361061007b575f3560e01c80637930c1e9116100595780637930c1e9146100ec5780638fa2defe1461011c578063c7f758a81461014c578063da35c6641461017f5761007b565b8063013cf08b1461007f5780634b55baa6146100b25780635280c3ee146100ce575b5f80fd5b6100996004803603810190610094919061074d565b61019d565b6040516100a99493929190610850565b60405180910390f35b6100cc60048036038101906100c7919061089a565b61026e565b005b6100d661043c565b6040516100e39190610933565b60405180910390f35b61010660048036038101906101019190610aa2565b61045f565b6040516101139190610b0e565b60405180910390f35b6101366004803603810190610131919061074d565b610602565b6040516101439190610b0e565b60405180910390f35b6101666004803603810190610161919061074d565b61061f565b6040516101769493929190610850565b60405180910390f35b610187610703565b6040516101949190610b0e565b60405180910390f35b6002602052805f5260405f205f91509050805f015490806001015490806002015f9054906101000a900473ffffffffffffffffffffffffffffffffffffffff16908060030180546101ed90610b54565b80601f016020809104026020016040519081016040528092919081815260200182805461021990610b54565b80156102645780601f1061023b57610100808354040283529160200191610264565b820191905f5260205f20905b81548152906001019060200180831161024757829003601f168201915b5050505050905084565b5f60025f8481526020019081526020015f2090505f82116102c4576040517f08c379a00000000000000000000000000000000000000000000000000000000081526004016102bb90610bce565b60405180910390fd5b5f805f9054906101000a900473ffffffffffffffffffffffffffffffffffffffff1673ffffffffffffffffffffffffffffffffffffffff166323b872dd33846002015f9054906101000a900473ffffffffffffffffffffffffffffffffffffffff16866040518463ffffffff1660e01b815260040161034593929190610bec565b6020604051808303815f875af1158015610361573d5f803e3d5ffd5b505050506040513d601f19601f820116820180604052508101906103859190610c56565b9050806103c7576040517f08c379a00000000000000000000000000000000000000000000000000000000081526004016103be90610ccb565b60405180910390fd5b82826001015f8282546103da9190610d16565b925050819055503373ffffffffffffffffffffffffffffffffffffffff16847f08f0a353df351f5ef66af43c592af8908c004229a1a5d931d875d2ee43bd310385856001015460405161042e929190610d49565b60405180910390a350505050565b5f8054906101000a900473ffffffffffffffffffffffffffffffffffffffff1681565b5f8073ffffffffffffffffffffffffffffffffffffffff168373ffffffffffffffffffffffffffffffffffffffff16036104ce576040517f08c379a00000000000000000000000000000000000000000000000000000000081526004016104c590610dba565b60405180910390fd5b5f600154905060405180608001604052808681526020015f81526020018573ffffffffffffffffffffffffffffffffffffffff1681526020018481525060025f8381526020019081526020015f205f820151815f0155602082015181600101556040820151816002015f6101000a81548173ffffffffffffffffffffffffffffffffffffffff021916908373ffffffffffffffffffffffffffffffffffffffff16021790555060608201518160030190816105899190610f6c565b509050503373ffffffffffffffffffffffffffffffffffffffff16817ff66a3e7ba538f9082141dc0fd245147ed00fefdd2645aeea8dbd004c6f1a82888787876040516105d89392919061103b565b60405180910390a360015f8154809291906105f290611077565b9190505550809150509392505050565b5f60025f8381526020019081526020015f20600101549050919050565b5f805f60605f60025f8781526020019081526020015f209050805f01548160010154826002015f9054906101000a900473ffffffffffffffffffffffffffffffffffffffff168360030180805461067590610b54565b80601f01602080910402602001604051908101604052809291908181526020018280546106a190610b54565b80156106ec5780601f106106c3576101008083540402835291602001916106ec565b820191905f5260205f20905b8154815290600101906020018083116106cf57829003601f168201915b505050505090509450945094509450509193509193565b60015481565b5f604051905090565b5f80fd5b5f80fd5b5f819050919050565b61072c8161071a565b8114610736575f80fd5b50565b5f8135905061074781610723565b92915050565b5f6020828403121561076257610761610712565b5b5f61076f84828501610739565b91505092915050565b6107818161071a565b82525050565b5f73ffffffffffffffffffffffffffffffffffffffff82169050919050565b5f6107b082610787565b9050919050565b6107c0816107a6565b82525050565b5f81519050919050565b5f82825260208201905092915050565b5f5b838110156107fd5780820151818401526020810190506107e2565b5f8484015250505050565b5f601f19601f8301169050919050565b5f610822826107c6565b61082c81856107d0565b935061083c8185602086016107e0565b61084581610808565b840191505092915050565b5f6080820190506108635f830187610778565b6108706020830186610778565b61087d60408301856107b7565b818103606083015261088f8184610818565b905095945050505050565b5f80604083850312156108b0576108af610712565b5b5f6108bd85828601610739565b92505060206108ce85828601610739565b9150509250929050565b5f819050919050565b5f6108fb6108f66108f184610787565b6108d8565b610787565b9050919050565b5f61090c826108e1565b9050919050565b5f61091d82610902565b9050919050565b61092d81610913565b82525050565b5f6020820190506109465f830184610924565b92915050565b610955816107a6565b811461095f575f80fd5b50565b5f813590506109708161094c565b92915050565b5f80fd5b5f80fd5b7f4e487b71000000000000000000000000000000000000000000000000000000005f52604160045260245ffd5b6109b482610808565b810181811067ffffffffffffffff821117156109d3576109d261097e565b5b80604052505050565b5f6109e5610709565b90506109f182826109ab565b919050565b5f67ffffffffffffffff821115610a1057610a0f61097e565b5b610a1982610808565b9050602081019050919050565b828183375f83830152505050565b5f610a46610a41846109f6565b6109dc565b905082815260208101848484011115610a6257610a6161097a565b5b610a6d848285610a26565b509392505050565b5f82601f830112610a8957610a88610976565b5b8135610a99848260208601610a34565b91505092915050565b5f805f60608486031215610ab957610ab8610712565b5b5f610ac686828701610739565b9350506020610ad786828701610962565b925050604084013567ffffffffffffffff811115610af857610af7610716565b5b610b0486828701610a75565b9150509250925092565b5f602082019050610b215f830184610778565b92915050565b7f4e487b71000000000000000000000000000000000000000000000000000000005f52602260045260245ffd5b5f6002820490506001821680610b6b57607f821691505b602082108103610b7e57610b7d610b27565b5b50919050565b7f416d6f756e74206d7573742062652067726561746572207468616e20300000005f82015250565b5f610bb8601d836107d0565b9150610bc382610b84565b602082019050919050565b5f6020820190508181035f830152610be581610bac565b9050919050565b5f606082019050610bff5f8301866107b7565b610c0c60208301856107b7565b610c196040830184610778565b949350505050565b5f8115159050919050565b610c3581610c21565b8114610c3f575f80fd5b50565b5f81519050610c5081610c2c565b92915050565b5f60208284031215610c6b57610c6a610712565b5b5f610c7884828501610c42565b91505092915050565b7f546f6b656e207472616e73666572206661696c656400000000000000000000005f82015250565b5f610cb56015836107d0565b9150610cc082610c81565b602082019050919050565b5f6020820190508181035f830152610ce281610ca9565b9050919050565b7f4e487b71000000000000000000000000000000000000000000000000000000005f52601160045260245ffd5b5f610d208261071a565b9150610d2b8361071a565b9250828201905080821115610d4357610d42610ce9565b5b92915050565b5f604082019050610d5c5f830185610778565b610d696020830184610778565b9392505050565b7f496e76616c69642070617961626c6520616464726573730000000000000000005f82015250565b5f610da46017836107d0565b9150610daf82610d70565b602082019050919050565b5f6020820190508181035f830152610dd181610d98565b9050919050565b5f819050815f5260205f209050919050565b5f6020601f8301049050919050565b5f82821b905092915050565b5f60088302610e347fffffffffffffffffffffffffffffffffffffffffffffffffffffffffffffffff82610df9565b610e3e8683610df9565b95508019841693508086168417925050509392505050565b5f610e70610e6b610e668461071a565b6108d8565b61071a565b9050919050565b5f819050919050565b610e8983610e56565b610e9d610e9582610e77565b848454610e05565b825550505050565b5f90565b610eb1610ea5565b610ebc818484610e80565b505050565b5b81811015610edf57610ed45f82610ea9565b600181019050610ec2565b5050565b601f821115610f2457610ef581610dd8565b610efe84610dea565b81016020851015610f0d578190505b610f21610f1985610dea565b830182610ec1565b50505b505050565b5f82821c905092915050565b5f610f445f1984600802610f29565b1980831691505092915050565b5f610f5c8383610f35565b9150826002028217905092915050565b610f75826107c6565b67ffffffffffffffff811115610f8e57610f8d61097e565b5b610f988254610b54565b610fa3828285610ee3565b5f60209050601f831160018114610fd4575f8415610fc2578287015190505b610fcc8582610f51565b865550611033565b601f198416610fe286610dd8565b5f5b8281101561100957848901518255600182019150602085019450602081019050610fe4565b868310156110265784890151611022601f891682610f35565b8355505b6001600288020188555050505b505050505050565b5f60608201905061104e5f830186610778565b61105b60208301856107b7565b818103604083015261106d8184610818565b9050949350505050565b5f6110818261071a565b91507fffffffffffffffffffffffffffffffffffffffffffffffffffffffffffffffff82036110b3576110b2610ce9565b5b60018201905091905056fea26469706673582212204bbea69859df8a282c8516ac399f6972478dc49b864b194b0c1ca07cbd34d37364736f6c63430008140033","linkReferences":{}},"methodIdentifiers":{"createProposal(uint256,address,string)":"7930c1e9","dealToken()":"5280c3ee","fundProposal(uint256,uint256)":"4b55baa6","getCurrentFunding(uint256)":"8fa2defe","getProposal(uint256)":"c7f758a8","proposalCount()":"da35c664","proposals(uint256)":"013cf08b"},"id":19}