{"abi":[{"type":"constructor","inputs":[{"name":"_dealToken","type":"address","internalType":"address"}],"stateMutability":"nonpayable"},{"type":"function","name":"createProposal","inputs":[{"name":"_dealRequired","type":"uint256","internalType":"uint256"},{"name":"_payableAddress","type":"address","internalType":"address"},{"name":"_documentURI","type":"string","internalType":"string"}],"outputs":[{"name":"","type":"uint256","internalType":"uint256"}],"stateMutability":"nonpayable"},{"type":"function","name":"dealToken","inputs":[],"outputs":[{"name":"","type":"address","internalType":"contract IERC20"}],"stateMutability":"view"},{"type":"function","name":"fundProposal","inputs":[{"name":"_proposalId","type":"uint256","internalType":"uint256"},{"name":"_amount","type":"uint256","internalType":"uint256"}],"outputs":[],"stateMutability":"nonpayable"},{"type":"function","name":"getProposal","inputs":[{"name":"_proposalId","type":"uint256","internalType":"uint256"}],"outputs":[{"name":"dealRequired","type":"uint256","internalType":"uint256"},{"name":"payableAddress","type":"address","internalType":"address"},{"name":"documentURI","type":"string","internalType":"string"}],"stateMutability":"view"},{"type":"function","name":"proposalCount","inputs":[],"outputs":[{"name":"","type":"uint256","internalType":"uint256"}],"stateMutability":"view"},{"type":"function","name":"proposals","inputs":[{"name":"","type":"uint256","internalType":"uint256"}],"outputs":[{"name":"dealRequired","type":"uint256","internalType":"uint256"},{"name":"payableAddress","type":"address","internalType":"address"},{"name":"documentURI","type":"string","internalType":"string"}],"stateMutability":"view"},{"type":"event","name":"ProposalCreated","inputs":[{"name":"proposalId","type":"uint256","indexed":true,"internalType":"uint256"},{"name":"proposer","type":"address","indexed":true,"internalType":"address"},{"name":"dealRequired","type":"uint256","indexed":false,"internalType":"uint256"},{"name":"payableAddress","type":"address","indexed":false,"internalType":"address"},{"name":"documentURI","type":"string","indexed":false,"internalType":"string"}],"anonymous":false},{"type":"event","name":"ProposalFunded","inputs":[{"name":"proposalId","type":"uint256","indexed":true,"internalType":"uint256"},{"name":"funder","type":"address","indexed":true,"internalType":"address"},{"name":"amount","type":"uint256","indexed":false,"internalType":"uint256"}],"anonymous":false}],"bytecode":{"object":"0x608060405234801562000010575f80fd5b50604051620010c7380380620010c78339818101604052810190620000369190620000e1565b805f806101000a81548173ffffffffffffffffffffffffffffffffffffffff021916908373ffffffffffffffffffffffffffffffffffffffff1602179055505062000111565b5f80fd5b5f73ffffffffffffffffffffffffffffffffffffffff82169050919050565b5f620000ab8262000080565b9050919050565b620000bd816200009f565b8114620000c8575f80fd5b50565b5f81519050620000db81620000b2565b92915050565b5f60208284031215620000f957620000f86200007c565b5b5f6200010884828501620000cb565b91505092915050565b610fa8806200011f5f395ff3fe608060405234801561000f575f80fd5b5060043610610060575f3560e01c8063013cf08b146100645780634b55baa6146100965780635280c3ee146100b25780637930c1e9146100d0578063c7f758a814610100578063da35c66414610132575b5f80fd5b61007e600480360381019061007991906106a5565b610150565b60405161008d939291906107a8565b60405180910390f35b6100b060048036038101906100ab91906107e4565b61021b565b005b6100ba6103c9565b6040516100c7919061087d565b60405180910390f35b6100ea60048036038101906100e591906109ec565b6103ec565b6040516100f79190610a58565b60405180910390f35b61011a600480360381019061011591906106a5565b61057f565b604051610129939291906107a8565b60405180910390f35b61013a61065b565b6040516101479190610a58565b60405180910390f35b6002602052805f5260405f205f91509050805f015490806001015f9054906101000a900473ffffffffffffffffffffffffffffffffffffffff169080600201805461019a90610a9e565b80601f01602080910402602001604051908101604052809291908181526020018280546101c690610a9e565b80156102115780601f106101e857610100808354040283529160200191610211565b820191905f5260205f20905b8154815290600101906020018083116101f457829003601f168201915b5050505050905083565b5f60025f8481526020019081526020015f2090505f8211610271576040517f08c379a000000000000000000000000000000000000000000000000000000000815260040161026890610b18565b60405180910390fd5b5f805f9054906101000a900473ffffffffffffffffffffffffffffffffffffffff1673ffffffffffffffffffffffffffffffffffffffff166323b872dd33846001015f9054906101000a900473ffffffffffffffffffffffffffffffffffffffff16866040518463ffffffff1660e01b81526004016102f293929190610b36565b6020604051808303815f875af115801561030e573d5f803e3d5ffd5b505050506040513d601f19601f820116820180604052508101906103329190610ba0565b905080610374576040517f08c379a000000000000000000000000000000000000000000000000000000000815260040161036b90610c15565b60405180910390fd5b3373ffffffffffffffffffffffffffffffffffffffff16847f5b47478b1a9bcccc0683800f537f513a17c66ebb7a9b7e2773053b37fc83bb05856040516103bb9190610a58565b60405180910390a350505050565b5f8054906101000a900473ffffffffffffffffffffffffffffffffffffffff1681565b5f8073ffffffffffffffffffffffffffffffffffffffff168373ffffffffffffffffffffffffffffffffffffffff160361045b576040517f08c379a000000000000000000000000000000000000000000000000000000000815260040161045290610c7d565b60405180910390fd5b5f600154905060405180606001604052808681526020018573ffffffffffffffffffffffffffffffffffffffff1681526020018481525060025f8381526020019081526020015f205f820151815f01556020820151816001015f6101000a81548173ffffffffffffffffffffffffffffffffffffffff021916908373ffffffffffffffffffffffffffffffffffffffff16021790555060408201518160020190816105069190610e2f565b509050503373ffffffffffffffffffffffffffffffffffffffff16817ff66a3e7ba538f9082141dc0fd245147ed00fefdd2645aeea8dbd004c6f1a8288878787604051610555939291906107a8565b60405180910390a360015f81548092919061056f90610f2b565b9190505550809150509392505050565b5f8060605f60025f8681526020019081526020015f209050805f0154816001015f9054906101000a900473ffffffffffffffffffffffffffffffffffffffff16826002018080546105cf90610a9e565b80601f01602080910402602001604051908101604052809291908181526020018280546105fb90610a9e565b80156106465780601f1061061d57610100808354040283529160200191610646565b820191905f5260205f20905b81548152906001019060200180831161062957829003601f168201915b50505050509050935093509350509193909250565b60015481565b5f604051905090565b5f80fd5b5f80fd5b5f819050919050565b61068481610672565b811461068e575f80fd5b50565b5f8135905061069f8161067b565b92915050565b5f602082840312156106ba576106b961066a565b5b5f6106c784828501610691565b91505092915050565b6106d981610672565b82525050565b5f73ffffffffffffffffffffffffffffffffffffffff82169050919050565b5f610708826106df565b9050919050565b610718816106fe565b82525050565b5f81519050919050565b5f82825260208201905092915050565b5f5b8381101561075557808201518184015260208101905061073a565b5f8484015250505050565b5f601f19601f8301169050919050565b5f61077a8261071e565b6107848185610728565b9350610794818560208601610738565b61079d81610760565b840191505092915050565b5f6060820190506107bb5f8301866106d0565b6107c8602083018561070f565b81810360408301526107da8184610770565b9050949350505050565b5f80604083850312156107fa576107f961066a565b5b5f61080785828601610691565b925050602061081885828601610691565b9150509250929050565b5f819050919050565b5f61084561084061083b846106df565b610822565b6106df565b9050919050565b5f6108568261082b565b9050919050565b5f6108678261084c565b9050919050565b6108778161085d565b82525050565b5f6020820190506108905f83018461086e565b92915050565b61089f816106fe565b81146108a9575f80fd5b50565b5f813590506108ba81610896565b92915050565b5f80fd5b5f80fd5b7f4e487b71000000000000000000000000000000000000000000000000000000005f52604160045260245ffd5b6108fe82610760565b810181811067ffffffffffffffff8211171561091d5761091c6108c8565b5b80604052505050565b5f61092f610661565b905061093b82826108f5565b919050565b5f67ffffffffffffffff82111561095a576109596108c8565b5b61096382610760565b9050602081019050919050565b828183375f83830152505050565b5f61099061098b84610940565b610926565b9050828152602081018484840111156109ac576109ab6108c4565b5b6109b7848285610970565b509392505050565b5f82601f8301126109d3576109d26108c0565b5b81356109e384826020860161097e565b91505092915050565b5f805f60608486031215610a0357610a0261066a565b5b5f610a1086828701610691565b9350506020610a21868287016108ac565b925050604084013567ffffffffffffffff811115610a4257610a4161066e565b5b610a4e868287016109bf565b9150509250925092565b5f602082019050610a6b5f8301846106d0565b92915050565b7f4e487b71000000000000000000000000000000000000000000000000000000005f52602260045260245ffd5b5f6002820490506001821680610ab557607f821691505b602082108103610ac857610ac7610a71565b5b50919050565b7f416d6f756e74206d7573742062652067726561746572207468616e20300000005f82015250565b5f610b02601d83610728565b9150610b0d82610ace565b602082019050919050565b5f6020820190508181035f830152610b2f81610af6565b9050919050565b5f606082019050610b495f83018661070f565b610b56602083018561070f565b610b6360408301846106d0565b949350505050565b5f8115159050919050565b610b7f81610b6b565b8114610b89575f80fd5b50565b5f81519050610b9a81610b76565b92915050565b5f60208284031215610bb557610bb461066a565b5b5f610bc284828501610b8c565b91505092915050565b7f546f6b656e207472616e73666572206661696c656400000000000000000000005f82015250565b5f610bff601583610728565b9150610c0a82610bcb565b602082019050919050565b5f6020820190508181035f830152610c2c81610bf3565b9050919050565b7f496e76616c69642070617961626c6520616464726573730000000000000000005f82015250565b5f610c67601783610728565b9150610c7282610c33565b602082019050919050565b5f6020820190508181035f830152610c9481610c5b565b9050919050565b5f819050815f5260205f209050919050565b5f6020601f8301049050919050565b5f82821b905092915050565b5f60088302610cf77fffffffffffffffffffffffffffffffffffffffffffffffffffffffffffffffff82610cbc565b610d018683610cbc565b95508019841693508086168417925050509392505050565b5f610d33610d2e610d2984610672565b610822565b610672565b9050919050565b5f819050919050565b610d4c83610d19565b610d60610d5882610d3a565b848454610cc8565b825550505050565b5f90565b610d74610d68565b610d7f818484610d43565b505050565b5b81811015610da257610d975f82610d6c565b600181019050610d85565b5050565b601f821115610de757610db881610c9b565b610dc184610cad565b81016020851015610dd0578190505b610de4610ddc85610cad565b830182610d84565b50505b505050565b5f82821c905092915050565b5f610e075f1984600802610dec565b1980831691505092915050565b5f610e1f8383610df8565b9150826002028217905092915050565b610e388261071e565b67ffffffffffffffff811115610e5157610e506108c8565b5b610e5b8254610a9e565b610e66828285610da6565b5f60209050601f831160018114610e97575f8415610e85578287015190505b610e8f8582610e14565b865550610ef6565b601f198416610ea586610c9b565b5f5b82811015610ecc57848901518255600182019150602085019450602081019050610ea7565b86831015610ee95784890151610ee5601f891682610df8565b8355505b6001600288020188555050505b505050505050565b7f4e487b71000000000000000000000000000000000000000000000000000000005f52601160045260245ffd5b5f610f3582610672565b91507fffffffffffffffffffffffffffffffffffffffffffffffffffffffffffffffff8203610f6757610f66610efe565b5b60018201905091905056fea2646970667358221220dac27ba311bdd03eaebb49677a5cd240daf9142b9c1066d8df10a09a0a77568164736f6c63430008140033","linkReferences":{}},"methodIdentifiers":{"createProposal(uint256,address,string)":"7930c1e9","dealToken()":"5280c3ee","fundProposal(uint256,uint256)":"4b55baa6","getProposal(uint256)":"c7f758a8","proposalCount()":"da35c664","proposals(uint256)":"013cf08b"},"id":24}