{"abi":[{"type":"constructor","inputs":[{"name":"_reserve","type":"address","internalType":"address"}],"stateMutability":"nonpayable"},{"type":"function","name":"DOMAIN_SEPARATOR","inputs":[],"outputs":[{"name":"","type":"bytes32","internalType":"bytes32"}],"stateMutability":"view"},{"type":"function","name":"allowance","inputs":[{"name":"","type":"address","internalType":"address"},{"name":"","type":"address","internalType":"address"}],"outputs":[{"name":"","type":"uint256","internalType":"uint256"}],"stateMutability":"view"},{"type":"function","name":"approve","inputs":[{"name":"spender","type":"address","internalType":"address"},{"name":"amount","type":"uint256","internalType":"uint256"}],"outputs":[{"name":"","type":"bool","internalType":"bool"}],"stateMutability":"nonpayable"},{"type":"function","name":"balanceOf","inputs":[{"name":"","type":"address","internalType":"address"}],"outputs":[{"name":"","type":"uint256","internalType":"uint256"}],"stateMutability":"view"},{"type":"function","name":"burn","inputs":[{"name":"_burnAmount","type":"uint256","internalType":"uint256"}],"outputs":[],"stateMutability":"nonpayable"},{"type":"function","name":"decimals","inputs":[],"outputs":[{"name":"","type":"uint8","internalType":"uint8"}],"stateMutability":"view"},{"type":"function","name":"getMintableForReserveAmount","inputs":[{"name":"reserveAmount","type":"uint256","internalType":"uint256"}],"outputs":[{"name":"learnMagic","type":"uint256","internalType":"uint256"}],"stateMutability":"view"},{"type":"function","name":"getPredictedBurn","inputs":[{"name":"_burnAmount","type":"uint256","internalType":"uint256"}],"outputs":[{"name":"learnMagic","type":"uint256","internalType":"uint256"}],"stateMutability":"view"},{"type":"function","name":"initialise","inputs":[],"outputs":[],"stateMutability":"nonpayable"},{"type":"function","name":"k","inputs":[],"outputs":[{"name":"","type":"uint256","internalType":"uint256"}],"stateMutability":"view"},{"type":"function","name":"mint","inputs":[{"name":"_wad","type":"uint256","internalType":"uint256"}],"outputs":[],"stateMutability":"nonpayable"},{"type":"function","name":"name","inputs":[],"outputs":[{"name":"","type":"string","internalType":"string"}],"stateMutability":"view"},{"type":"function","name":"nonces","inputs":[{"name":"","type":"address","internalType":"address"}],"outputs":[{"name":"","type":"uint256","internalType":"uint256"}],"stateMutability":"view"},{"type":"function","name":"permit","inputs":[{"name":"owner","type":"address","internalType":"address"},{"name":"spender","type":"address","internalType":"address"},{"name":"value","type":"uint256","internalType":"uint256"},{"name":"deadline","type":"uint256","internalType":"uint256"},{"name":"v","type":"uint8","internalType":"uint8"},{"name":"r","type":"bytes32","internalType":"bytes32"},{"name":"s","type":"bytes32","internalType":"bytes32"}],"outputs":[],"stateMutability":"nonpayable"},{"type":"function","name":"permitAndMint","inputs":[{"name":"_amount","type":"uint256","internalType":"uint256"},{"name":"nonce","type":"uint256","internalType":"uint256"},{"name":"expiry","type":"uint256","internalType":"uint256"},{"name":"v","type":"uint8","internalType":"uint8"},{"name":"r","type":"bytes32","internalType":"bytes32"},{"name":"s","type":"bytes32","internalType":"bytes32"}],"outputs":[],"stateMutability":"nonpayable"},{"type":"function","name":"reserve","inputs":[],"outputs":[{"name":"","type":"address","internalType":"contract ERC20"}],"stateMutability":"view"},{"type":"function","name":"reserveBalance","inputs":[],"outputs":[{"name":"","type":"uint256","internalType":"uint256"}],"stateMutability":"view"},{"type":"function","name":"symbol","inputs":[],"outputs":[{"name":"","type":"string","internalType":"string"}],"stateMutability":"view"},{"type":"function","name":"totalSupply","inputs":[],"outputs":[{"name":"","type":"uint256","internalType":"uint256"}],"stateMutability":"view"},{"type":"function","name":"transfer","inputs":[{"name":"to","type":"address","internalType":"address"},{"name":"amount","type":"uint256","internalType":"uint256"}],"outputs":[{"name":"","type":"bool","internalType":"bool"}],"stateMutability":"nonpayable"},{"type":"function","name":"transferFrom","inputs":[{"name":"from","type":"address","internalType":"address"},{"name":"to","type":"address","internalType":"address"},{"name":"amount","type":"uint256","internalType":"uint256"}],"outputs":[{"name":"","type":"bool","internalType":"bool"}],"stateMutability":"nonpayable"},{"type":"event","name":"Approval","inputs":[{"name":"owner","type":"address","indexed":true,"internalType":"address"},{"name":"spender","type":"address","indexed":true,"internalType":"address"},{"name":"amount","type":"uint256","indexed":false,"internalType":"uint256"}],"anonymous":false},{"type":"event","name":"DealBurned","inputs":[{"name":"learner","type":"address","indexed":true,"internalType":"address"},{"name":"amountBurned","type":"uint256","indexed":false,"internalType":"uint256"},{"name":"daiReturned","type":"uint256","indexed":false,"internalType":"uint256"},{"name":"e","type":"uint256","indexed":false,"internalType":"uint256"}],"anonymous":false},{"type":"event","name":"DealMinted","inputs":[{"name":"learner","type":"address","indexed":true,"internalType":"address"},{"name":"amountMinted","type":"uint256","indexed":false,"internalType":"uint256"},{"name":"daiDeposited","type":"uint256","indexed":false,"internalType":"uint256"}],"anonymous":false},{"type":"event","name":"Transfer","inputs":[{"name":"from","type":"address","indexed":true,"internalType":"address"},{"name":"to","type":"address","indexed":true,"internalType":"address"},{"name":"amount","type":"uint256","indexed":false,"internalType":"uint256"}],"anonymous":false}],"bytecode":{"object":"0x60e060405234801562000010575f80fd5b506040516200397c3803806200397c833981810160405281019062000036919062000231565b6040518060400160405280600481526020017f4445414c000000000000000000000000000000000000000000000000000000008152506040518060400160405280600481526020017f4445414c000000000000000000000000000000000000000000000000000000008152506012825f9081620000b49190620004c5565b508160019081620000c69190620004c5565b508060ff1660808160ff16815250504660a08181525050620000ed6200013e60201b60201c565b60c081815250505050508060065f6101000a81548173ffffffffffffffffffffffffffffffffffffffff021916908373ffffffffffffffffffffffffffffffffffffffff1602179055505062000700565b5f7f8b73c3c69bb8fe3d512ecc4cf759cc79239f7b179b0ffacaa9a75d522b39400f5f60405162000170919062000651565b60405180910390207fc89efdaa54c0f20c7adf612882df0950f5a951637e0307cdcb4c672f298b8bc64630604051602001620001b1959493929190620006a5565b60405160208183030381529060405280519060200120905090565b5f80fd5b5f73ffffffffffffffffffffffffffffffffffffffff82169050919050565b5f620001fb82620001d0565b9050919050565b6200020d81620001ef565b811462000218575f80fd5b50565b5f815190506200022b8162000202565b92915050565b5f60208284031215620002495762000248620001cc565b5b5f62000258848285016200021b565b91505092915050565b5f81519050919050565b7f4e487b71000000000000000000000000000000000000000000000000000000005f52604160045260245ffd5b7f4e487b71000000000000000000000000000000000000000000000000000000005f52602260045260245ffd5b5f6002820490506001821680620002dd57607f821691505b602082108103620002f357620002f262000298565b5b50919050565b5f819050815f5260205f209050919050565b5f6020601f8301049050919050565b5f82821b905092915050565b5f60088302620003577fffffffffffffffffffffffffffffffffffffffffffffffffffffffffffffffff826200031a565b6200036386836200031a565b95508019841693508086168417925050509392505050565b5f819050919050565b5f819050919050565b5f620003ad620003a7620003a1846200037b565b62000384565b6200037b565b9050919050565b5f819050919050565b620003c8836200038d565b620003e0620003d782620003b4565b84845462000326565b825550505050565b5f90565b620003f6620003e8565b62000403818484620003bd565b505050565b5b818110156200042a576200041e5f82620003ec565b60018101905062000409565b5050565b601f82111562000479576200044381620002f9565b6200044e846200030b565b810160208510156200045e578190505b620004766200046d856200030b565b83018262000408565b50505b505050565b5f82821c905092915050565b5f6200049b5f19846008026200047e565b1980831691505092915050565b5f620004b583836200048a565b9150826002028217905092915050565b620004d08262000261565b67ffffffffffffffff811115620004ec57620004eb6200026b565b5b620004f88254620002c5565b620005058282856200042e565b5f60209050601f8311600181146200053b575f841562000526578287015190505b620005328582620004a8565b865550620005a1565b601f1984166200054b86620002f9565b5f5b8281101562000574578489015182556001820191506020850194506020810190506200054d565b8683101562000594578489015162000590601f8916826200048a565b8355505b6001600288020188555050505b505050505050565b5f81905092915050565b5f819050815f5260205f209050919050565b5f8154620005d381620002c5565b620005df8186620005a9565b9450600182165f8114620005fc5760018114620006125762000648565b60ff198316865281151582028601935062000648565b6200061d85620005b3565b5f5b8381101562000640578154818901526001820191506020810190506200061f565b838801955050505b50505092915050565b5f6200065e8284620005c5565b915081905092915050565b5f819050919050565b6200067d8162000669565b82525050565b6200068e816200037b565b82525050565b6200069f81620001ef565b82525050565b5f60a082019050620006ba5f83018862000672565b620006c9602083018762000672565b620006d8604083018662000672565b620006e7606083018562000683565b620006f6608083018462000694565b9695505050505050565b60805160a05160c0516132516200072b5f395f61083701525f61080301525f6107de01526132515ff3fe608060405234801561000f575f80fd5b5060043610610135575f3560e01c80637ecebe00116100b6578063a9059cbb1161007a578063a9059cbb1461034f578063b05aa1091461037f578063b4f40c611461039b578063cd3293de146103b9578063d505accf146103d7578063dd62ed3e146103f357610135565b80637ecebe0014610297578063845d5ccc146102c757806395d89b41146102f7578063a0712d6814610315578063a10954fe1461033157610135565b80633644e515116100fd5780633644e515146101f357806342966c6814610211578063592e6f591461022d578063703cb3721461023757806370a082311461026757610135565b806306fdde0314610139578063095ea7b31461015757806318160ddd1461018757806323b872dd146101a5578063313ce567146101d5575b5f80fd5b610141610423565b60405161014e9190612666565b60405180910390f35b610171600480360381019061016c9190612717565b6104ae565b60405161017e919061276f565b60405180910390f35b61018f61059b565b60405161019c9190612797565b60405180910390f35b6101bf60048036038101906101ba91906127b0565b6105a1565b6040516101cc919061276f565b60405180910390f35b6101dd6107dc565b6040516101ea919061281b565b60405180910390f35b6101fb610800565b604051610208919061284c565b60405180910390f35b61022b60048036038101906102269190612865565b61085c565b005b61023561098c565b005b610251600480360381019061024c9190612865565b610a60565b60405161025e9190612797565b60405180910390f35b610281600480360381019061027c9190612890565b610ab0565b60405161028e9190612797565b60405180910390f35b6102b160048036038101906102ac9190612890565b610ac5565b6040516102be9190612797565b60405180910390f35b6102e160048036038101906102dc9190612865565b610ada565b6040516102ee9190612797565b60405180910390f35b6102ff610b1d565b60405161030c9190612666565b60405180910390f35b61032f600480360381019061032a9190612865565b610ba9565b005b610339610ce5565b6040516103469190612797565b60405180910390f35b61036960048036038101906103649190612717565b610ceb565b604051610376919061276f565b60405180910390f35b6103996004803603810190610394919061290f565b610df8565b005b6103a3610e9f565b6040516103b09190612797565b60405180910390f35b6103c1610ea5565b6040516103ce91906129f3565b60405180910390f35b6103f160048036038101906103ec9190612a0c565b610eca565b005b61040d60048036038101906104089190612aa9565b6111bc565b60405161041a9190612797565b60405180910390f35b5f805461042f90612b14565b80601f016020809104026020016040519081016040528092919081815260200182805461045b90612b14565b80156104a65780601f1061047d576101008083540402835291602001916104a6565b820191905f5260205f20905b81548152906001019060200180831161048957829003601f168201915b505050505081565b5f8160045f3373ffffffffffffffffffffffffffffffffffffffff1673ffffffffffffffffffffffffffffffffffffffff1681526020019081526020015f205f8573ffffffffffffffffffffffffffffffffffffffff1673ffffffffffffffffffffffffffffffffffffffff1681526020019081526020015f20819055508273ffffffffffffffffffffffffffffffffffffffff163373ffffffffffffffffffffffffffffffffffffffff167f8c5be1e5ebec7d5bd14f71427d1e84f3dd0314c0f7b2291e5b200ac8c7c3b925846040516105899190612797565b60405180910390a36001905092915050565b60025481565b5f8060045f8673ffffffffffffffffffffffffffffffffffffffff1673ffffffffffffffffffffffffffffffffffffffff1681526020019081526020015f205f3373ffffffffffffffffffffffffffffffffffffffff1673ffffffffffffffffffffffffffffffffffffffff1681526020019081526020015f205490507fffffffffffffffffffffffffffffffffffffffffffffffffffffffffffffffff81146106ce5782816106519190612b71565b60045f8773ffffffffffffffffffffffffffffffffffffffff1673ffffffffffffffffffffffffffffffffffffffff1681526020019081526020015f205f3373ffffffffffffffffffffffffffffffffffffffff1673ffffffffffffffffffffffffffffffffffffffff1681526020019081526020015f20819055505b8260035f8773ffffffffffffffffffffffffffffffffffffffff1673ffffffffffffffffffffffffffffffffffffffff1681526020019081526020015f205f82825461071a9190612b71565b925050819055508260035f8673ffffffffffffffffffffffffffffffffffffffff1673ffffffffffffffffffffffffffffffffffffffff1681526020019081526020015f205f82825401925050819055508373ffffffffffffffffffffffffffffffffffffffff168573ffffffffffffffffffffffffffffffffffffffff167fddf252ad1be2c89b69c2b068fc378daa952ba7f163c4a11628f55a4df523b3ef856040516107c89190612797565b60405180910390a360019150509392505050565b7f000000000000000000000000000000000000000000000000000000000000000081565b5f7f00000000000000000000000000000000000000000000000000000000000000004614610835576108306111dc565b610857565b7f00000000000000000000000000000000000000000000000000000000000000005b905090565b60085f9054906101000a900460ff166108aa576040517f08c379a00000000000000000000000000000000000000000000000000000000081526004016108a190612bee565b60405180910390fd5b5f6108b482611266565b90505f81670de0b6b3a76400006007546108ce9190612c0c565b6108d89190612c7a565b6007546108e59190612b71565b90506108f1338461129a565b8060075f8282546109029190612b71565b9250508190555061093560065f9054906101000a900473ffffffffffffffffffffffffffffffffffffffff163383611365565b3373ffffffffffffffffffffffffffffffffffffffff167f377c36f32bd4259f4ddb16a77f927934df97be16e2c3503af36c18c4b2ac62c184838560405161097f93929190612caa565b60405180910390a2505050565b60085f9054906101000a900460ff16156109db576040517f08c379a00000000000000000000000000000000000000000000000000000000081526004016109d290612d29565b60405180910390fd5b600160085f6101000a81548160ff021916908315150217905550610a2a60065f9054906101000a900473ffffffffffffffffffffffffffffffffffffffff163330670de0b6b3a7640000611408565b670de0b6b3a764000060075f828254610a439190612d47565b92505081905550610a5e3069021e27c1806e59a400006114c8565b565b5f80610a98600754670de0b6b3a764000085600754610a7f9190612d47565b610a899190612c0c565b610a939190612c7a565b611593565b905080612710610aa89190612c0c565b915050919050565b6003602052805f5260405f205f915090505481565b6005602052805f5260405f205f915090505481565b5f80610ae583611266565b905080670de0b6b3a7640000600754610afe9190612c0c565b610b089190612c7a565b600754610b159190612b71565b915050919050565b60018054610b2a90612b14565b80601f0160208091040260200160405190810160405280929190818152602001828054610b5690612b14565b8015610ba15780601f10610b7857610100808354040283529160200191610ba1565b820191905f5260205f20905b815481529060010190602001808311610b8457829003601f168201915b505050505081565b60085f9054906101000a900460ff16610bf7576040517f08c379a0000000000000000000000000000000000000000000000000000000008152600401610bee90612bee565b60405180910390fd5b610c2460065f9054906101000a900473ffffffffffffffffffffffffffffffffffffffff16333084611408565b5f610c5b600754670de0b6b3a764000084600754610c429190612d47565b610c4c9190612c0c565b610c569190612c7a565b611593565b90505f81612710610c6c9190612c0c565b90508260075f828254610c7f9190612d47565b92505081905550610c9033826114c8565b3373ffffffffffffffffffffffffffffffffffffffff167fb2b0d930676f8ea9faf7c1a914488570303ab0cdb898d4820cb26929b0b930bb8285604051610cd8929190612d7a565b60405180910390a2505050565b60075481565b5f8160035f3373ffffffffffffffffffffffffffffffffffffffff1673ffffffffffffffffffffffffffffffffffffffff1681526020019081526020015f205f828254610d389190612b71565b925050819055508160035f8573ffffffffffffffffffffffffffffffffffffffff1673ffffffffffffffffffffffffffffffffffffffff1681526020019081526020015f205f82825401925050819055508273ffffffffffffffffffffffffffffffffffffffff163373ffffffffffffffffffffffffffffffffffffffff167fddf252ad1be2c89b69c2b068fc378daa952ba7f163c4a11628f55a4df523b3ef84604051610de69190612797565b60405180910390a36001905092915050565b60065f9054906101000a900473ffffffffffffffffffffffffffffffffffffffff1673ffffffffffffffffffffffffffffffffffffffff16638fcbaf0c3330888860018989896040518963ffffffff1660e01b8152600401610e61989796959493929190612db0565b5f604051808303815f87803b158015610e78575f80fd5b505af1158015610e8a573d5f803e3d5ffd5b50505050610e9786610ba9565b505050505050565b61271081565b60065f9054906101000a900473ffffffffffffffffffffffffffffffffffffffff1681565b42841015610f0d576040517f08c379a0000000000000000000000000000000000000000000000000000000008152600401610f0490612e76565b60405180910390fd5b5f610f16610800565b7f6e71edae12b1b97f4d1f60370fef10105fa2faae0126114a169c64845d6126c989898960055f8e73ffffffffffffffffffffffffffffffffffffffff1673ffffffffffffffffffffffffffffffffffffffff1681526020019081526020015f205f815480929190600101919050558a604051602001610f9b96959493929190612e94565b60405160208183030381529060405280519060200120604051602001610fc2929190612f67565b6040516020818303038152906040528051906020012090505f6001828686866040515f8152602001604052604051610ffd9493929190612f9d565b6020604051602081039080840390855afa15801561101d573d5f803e3d5ffd5b5050506020604051035190505f73ffffffffffffffffffffffffffffffffffffffff168173ffffffffffffffffffffffffffffffffffffffff161415801561109057508873ffffffffffffffffffffffffffffffffffffffff168173ffffffffffffffffffffffffffffffffffffffff16145b6110cf576040517f08c379a00000000000000000000000000000000000000000000000000000000081526004016110c69061302a565b60405180910390fd5b8660045f8373ffffffffffffffffffffffffffffffffffffffff1673ffffffffffffffffffffffffffffffffffffffff1681526020019081526020015f205f8a73ffffffffffffffffffffffffffffffffffffffff1673ffffffffffffffffffffffffffffffffffffffff1681526020019081526020015f208190555050508573ffffffffffffffffffffffffffffffffffffffff168773ffffffffffffffffffffffffffffffffffffffff167f8c5be1e5ebec7d5bd14f71427d1e84f3dd0314c0f7b2291e5b200ac8c7c3b925876040516111ab9190612797565b60405180910390a350505050505050565b6004602052815f5260405f20602052805f5260405f205f91509150505481565b5f7f8b73c3c69bb8fe3d512ecc4cf759cc79239f7b179b0ffacaa9a75d522b39400f5f60405161120c91906130e4565b60405180910390207fc89efdaa54c0f20c7adf612882df0950f5a951637e0307cdcb4c672f298b8bc6463060405160200161124b9594939291906130fa565b60405160208183030381529060405280519060200120905090565b5f806040518060200160405280612710856112819190612c7a565b815250905061128f816115ba565b5f0151915050919050565b8060035f8473ffffffffffffffffffffffffffffffffffffffff1673ffffffffffffffffffffffffffffffffffffffff1681526020019081526020015f205f8282546112e69190612b71565b925050819055508060025f82825403925050819055505f73ffffffffffffffffffffffffffffffffffffffff168273ffffffffffffffffffffffffffffffffffffffff167fddf252ad1be2c89b69c2b068fc378daa952ba7f163c4a11628f55a4df523b3ef836040516113599190612797565b60405180910390a35050565b5f6040517fa9059cbb00000000000000000000000000000000000000000000000000000000815273ffffffffffffffffffffffffffffffffffffffff841660048201528260248201525f806044835f895af19150506113c381611630565b611402576040517f08c379a00000000000000000000000000000000000000000000000000000000081526004016113f990613195565b60405180910390fd5b50505050565b5f6040517f23b872dd00000000000000000000000000000000000000000000000000000000815273ffffffffffffffffffffffffffffffffffffffff8516600482015273ffffffffffffffffffffffffffffffffffffffff841660248201528260448201525f806064835f8a5af191505061148281611630565b6114c1576040517f08c379a00000000000000000000000000000000000000000000000000000000081526004016114b8906131fd565b60405180910390fd5b5050505050565b8060025f8282546114d99190612d47565b925050819055508060035f8473ffffffffffffffffffffffffffffffffffffffff1673ffffffffffffffffffffffffffffffffffffffff1681526020019081526020015f205f82825401925050819055508173ffffffffffffffffffffffffffffffffffffffff165f73ffffffffffffffffffffffffffffffffffffffff167fddf252ad1be2c89b69c2b068fc378daa952ba7f163c4a11628f55a4df523b3ef836040516115879190612797565b60405180910390a35050565b5f8060405180602001604052808481525090506115af81611672565b5f0151915050919050565b6115c26125ca565b6804cf46d8192b672ecc825f0151106115d9575f80fd5b5f6714057b7ef767814f835f01510290505f6040518060200160405280670de0b6b3a76400006706f05b59d3b2000085018161161857611617612c4d565b5b048152509050611627816116c2565b92505050919050565b5f3d8261163f57805f803e805ffd5b8060208114611657575f8114611666575f925061166b565b815f803e5f511515925061166b565b600192505b5050919050565b61167a6125ca565b5f6714057b7ef767814f670de0b6b3a764000061169685611723565b5f015102816116a8576116a7612c4d565b5b049050604051806020016040528082815250915050919050565b6116ca6125ca565b6806f05b59d3b2000000825f0151106116e1575f80fd5b5f670de0b6b3a76400006080845f0151901b8161170157611700612c4d565b5b049050604051806020016040528061171883611821565b815250915050919050565b61172b6125ca565b670de0b6b3a7640000825f01511015611742575f80fd5b5f611767670de0b6b3a7640000845f01518161176157611760612c4d565b5b046124b4565b90505f670de0b6b3a7640000820290505f82855f0151901c9050670de0b6b3a764000081036117a957604051806020016040528083815250935050505061181c565b5f6706f05b59d3b2000090505b5f81111561180657670de0b6b3a7640000828302816117d8576117d7612c4d565b5b049150670de0b6b3a764000060020282106117fa578083019250600182901c91505b600181901c90506117b6565b5060405180602001604052808381525093505050505b919050565b5f6f8000000000000000000000000000000090505f6f800000000000000000000000000000008316111561186a57608070016a09e667f3bcc908b2fb1366ea957d3e8202901c90505b5f6f400000000000000000000000000000008316111561189f5760807001306fe0a31b7152de8d5a46305c85eded8202901c90505b5f6f20000000000000000000000000000000831611156118d45760807001172b83c7d517adcdf7c8c50eb14a79208202901c90505b5f6f100000000000000000000000000000008316111561190957608070010b5586cf9890f6298b92b71842a983648202901c90505b5f6f080000000000000000000000000000008316111561193e5760807001059b0d31585743ae7c548eb68ca417fe8202901c90505b5f6f0400000000000000000000000000000083161115611973576080700102c9a3e778060ee6f7caca4f7a29bde98202901c90505b5f6f02000000000000000000000000000000831611156119a857608070010163da9fb33356d84a66ae336dcdfa408202901c90505b5f6f01000000000000000000000000000000831611156119dd576080700100b1afa5abcbed6129ab13ec11dc95448202901c90505b5f6e80000000000000000000000000000083161115611a1157608070010058c86da1c09ea1ff19d294cf2f679c8202901c90505b5f6e40000000000000000000000000000083161115611a455760807001002c605e2e8cec506d21bfc89a23a0118202901c90505b5f6e20000000000000000000000000000083161115611a79576080700100162f3904051fa128bca9c55c31e5e08202901c90505b5f6e10000000000000000000000000000083161115611aad5760807001000b175effdc76ba38e31671ca9397268202901c90505b5f6e08000000000000000000000000000083161115611ae1576080700100058ba01fb9f96d6cacd4b180917c3e8202901c90505b5f6e04000000000000000000000000000083161115611b1557608070010002c5cc37da9491d0985c348c68e7b48202901c90505b5f6e02000000000000000000000000000083161115611b495760807001000162e525ee054754457d59952920278202901c90505b5f6e01000000000000000000000000000083161115611b7d57608070010000b17255775c040618bf4a4ade83fd8202901c90505b5f6d800000000000000000000000000083161115611bb05760807001000058b91b5bc9ae2eed81e9b7d4cfac8202901c90505b5f6d400000000000000000000000000083161115611be3576080700100002c5c89d5ec6ca4d7c8acc017b7ca8202901c90505b5f6d200000000000000000000000000083161115611c1657608070010000162e43f4f831060e02d839a9d16d8202901c90505b5f6d100000000000000000000000000083161115611c49576080700100000b1721bcfc99d9f890ea069117638202901c90505b5f6d080000000000000000000000000083161115611c7c57608070010000058b90cf1e6d97f9ca14dbcc16298202901c90505b5f6d040000000000000000000000000083161115611caf5760807001000002c5c863b73f016468f6bac5ca2c8202901c90505b5f6d020000000000000000000000000083161115611ce2576080700100000162e430e5a18f6119e3c02282a68202901c90505b5f6d010000000000000000000000000083161115611d155760807001000000b1721835514b86e6d96efd1bff8202901c90505b5f6c8000000000000000000000000083161115611d47576080700100000058b90c0b48c6be5df846c5b2f08202901c90505b5f6c4000000000000000000000000083161115611d7957608070010000002c5c8601cc6b9e94213c72737b8202901c90505b5f6c2000000000000000000000000083161115611dab5760807001000000162e42fff037df38aa2b219f078202901c90505b5f6c1000000000000000000000000083161115611ddd57608070010000000b17217fba9c739aa5819f44fa8202901c90505b5f6c0800000000000000000000000083161115611e0f5760807001000000058b90bfcdee5acd3c1cedc8248202901c90505b5f6c0400000000000000000000000083161115611e41576080700100000002c5c85fe31f35a6a30da1be518202901c90505b5f6c0200000000000000000000000083161115611e7357608070010000000162e42ff0999ce3541b9fffd08202901c90505b5f6c0100000000000000000000000083161115611ea5576080700100000000b17217f80f4ef5aadda455548202901c90505b5f6b80000000000000000000000083161115611ed657608070010000000058b90bfbf8479bd5a81b51ae8202901c90505b5f6b40000000000000000000000083161115611f075760807001000000002c5c85fdf84bd62ae30a74cd8202901c90505b5f6b20000000000000000000000083161115611f38576080700100000000162e42fefb2fed257559bdaa8202901c90505b5f6b10000000000000000000000083161115611f695760807001000000000b17217f7d5a7716bba4a9af8202901c90505b5f6b08000000000000000000000083161115611f9a576080700100000000058b90bfbe9ddbac5e109ccf8202901c90505b5f6b04000000000000000000000083161115611fcb57608070010000000002c5c85fdf4b15de6f17eb0e8202901c90505b5f6b02000000000000000000000083161115611ffc5760807001000000000162e42fefa494f1478fde058202901c90505b5f6b0100000000000000000000008316111561202d57608070010000000000b17217f7d20cf927c8e94d8202901c90505b5f6a80000000000000000000008316111561205d5760807001000000000058b90bfbe8f71cb4e4b33e8202901c90505b5f6a40000000000000000000008316111561208d576080700100000000002c5c85fdf477b662b269468202901c90505b5f6a2000000000000000000000831611156120bd57608070010000000000162e42fefa3ae53369388d8202901c90505b5f6a1000000000000000000000831611156120ed576080700100000000000b17217f7d1d351a389d418202901c90505b5f6a08000000000000000000008316111561211d57608070010000000000058b90bfbe8e8b2d3d4edf8202901c90505b5f6a04000000000000000000008316111561214d5760807001000000000002c5c85fdf4741bea6e77f8202901c90505b5f6a02000000000000000000008316111561217d576080700100000000000162e42fefa39fe95583c38202901c90505b5f6a0100000000000000000000831611156121ad5760807001000000000000b17217f7d1cfb72b45e38202901c90505b5f6980000000000000000000831611156121dc576080700100000000000058b90bfbe8e7cc35c3f28202901c90505b5f69400000000000000000008316111561220b57608070010000000000002c5c85fdf473e242ea398202901c90505b5f69200000000000000000008316111561223a5760807001000000000000162e42fefa39f02b772c8202901c90505b5f69100000000000000000008316111561226957608070010000000000000b17217f7d1cf7d83c1a8202901c90505b5f6908000000000000000000831611156122985760807001000000000000058b90bfbe8e7bdcbe2e8202901c90505b5f6904000000000000000000831611156122c7576080700100000000000002c5c85fdf473dea871f8202901c90505b5f6902000000000000000000831611156122f657608070010000000000000162e42fefa39ef44d928202901c90505b5f690100000000000000000083161115612325576080700100000000000000b17217f7d1cf79e9498202901c90505b5f688000000000000000008316111561235357608070010000000000000058b90bfbe8e7bce5458202901c90505b5f68400000000000000000831611156123815760807001000000000000002c5c85fdf473de6eca8202901c90505b5f68200000000000000000831611156123af576080700100000000000000162e42fefa39ef366f8202901c90505b5f68100000000000000000831611156123dd5760807001000000000000000b17217f7d1cf79afa8202901c90505b5f680800000000000000008316111561240b576080700100000000000000058b90bfbe8e7bcd6e8202901c90505b5f680400000000000000008316111561243957608070010000000000000002c5c85fdf473de6b38202901c90505b5f68020000000000000000831611156124675760807001000000000000000162e42fefa39ef3598202901c90505b5f680100000000000000008316111561249557608070010000000000000000b17217f7d1cf79ac8202901c90505b670de0b6b3a764000081029050608082901c607f0381901c9050919050565b5f70010000000000000000000000000000000082106124e457608082901c91506080816124e19190612d47565b90505b68010000000000000000821061250b57604082901c91506040816125089190612d47565b90505b640100000000821061252e57602082901c915060208161252b9190612d47565b90505b62010000821061254f57601082901c915060108161254c9190612d47565b90505b610100821061256f57600882901c915060088161256c9190612d47565b90505b6010821061258e57600482901c915060048161258b9190612d47565b90505b600482106125ad57600282901c91506002816125aa9190612d47565b90505b600282106125c5576001816125c29190612d47565b90505b919050565b60405180602001604052805f81525090565b5f81519050919050565b5f82825260208201905092915050565b5f5b838110156126135780820151818401526020810190506125f8565b5f8484015250505050565b5f601f19601f8301169050919050565b5f612638826125dc565b61264281856125e6565b93506126528185602086016125f6565b61265b8161261e565b840191505092915050565b5f6020820190508181035f83015261267e818461262e565b905092915050565b5f80fd5b5f73ffffffffffffffffffffffffffffffffffffffff82169050919050565b5f6126b38261268a565b9050919050565b6126c3816126a9565b81146126cd575f80fd5b50565b5f813590506126de816126ba565b92915050565b5f819050919050565b6126f6816126e4565b8114612700575f80fd5b50565b5f81359050612711816126ed565b92915050565b5f806040838503121561272d5761272c612686565b5b5f61273a858286016126d0565b925050602061274b85828601612703565b9150509250929050565b5f8115159050919050565b61276981612755565b82525050565b5f6020820190506127825f830184612760565b92915050565b612791816126e4565b82525050565b5f6020820190506127aa5f830184612788565b92915050565b5f805f606084860312156127c7576127c6612686565b5b5f6127d4868287016126d0565b93505060206127e5868287016126d0565b92505060406127f686828701612703565b9150509250925092565b5f60ff82169050919050565b61281581612800565b82525050565b5f60208201905061282e5f83018461280c565b92915050565b5f819050919050565b61284681612834565b82525050565b5f60208201905061285f5f83018461283d565b92915050565b5f6020828403121561287a57612879612686565b5b5f61288784828501612703565b91505092915050565b5f602082840312156128a5576128a4612686565b5b5f6128b2848285016126d0565b91505092915050565b6128c481612800565b81146128ce575f80fd5b50565b5f813590506128df816128bb565b92915050565b6128ee81612834565b81146128f8575f80fd5b50565b5f81359050612909816128e5565b92915050565b5f805f805f8060c0878903121561292957612928612686565b5b5f61293689828a01612703565b965050602061294789828a01612703565b955050604061295889828a01612703565b945050606061296989828a016128d1565b935050608061297a89828a016128fb565b92505060a061298b89828a016128fb565b9150509295509295509295565b5f819050919050565b5f6129bb6129b66129b18461268a565b612998565b61268a565b9050919050565b5f6129cc826129a1565b9050919050565b5f6129dd826129c2565b9050919050565b6129ed816129d3565b82525050565b5f602082019050612a065f8301846129e4565b92915050565b5f805f805f805f60e0888a031215612a2757612a26612686565b5b5f612a348a828b016126d0565b9750506020612a458a828b016126d0565b9650506040612a568a828b01612703565b9550506060612a678a828b01612703565b9450506080612a788a828b016128d1565b93505060a0612a898a828b016128fb565b92505060c0612a9a8a828b016128fb565b91505092959891949750929550565b5f8060408385031215612abf57612abe612686565b5b5f612acc858286016126d0565b9250506020612add858286016126d0565b9150509250929050565b7f4e487b71000000000000000000000000000000000000000000000000000000005f52602260045260245ffd5b5f6002820490506001821680612b2b57607f821691505b602082108103612b3e57612b3d612ae7565b5b50919050565b7f4e487b71000000000000000000000000000000000000000000000000000000005f52601160045260245ffd5b5f612b7b826126e4565b9150612b86836126e4565b9250828203905081811115612b9e57612b9d612b44565b5b92915050565b7f21696e697469616c6973656400000000000000000000000000000000000000005f82015250565b5f612bd8600c836125e6565b9150612be382612ba4565b602082019050919050565b5f6020820190508181035f830152612c0581612bcc565b9050919050565b5f612c16826126e4565b9150612c21836126e4565b9250828202612c2f816126e4565b91508282048414831517612c4657612c45612b44565b5b5092915050565b7f4e487b71000000000000000000000000000000000000000000000000000000005f52601260045260245ffd5b5f612c84826126e4565b9150612c8f836126e4565b925082612c9f57612c9e612c4d565b5b828204905092915050565b5f606082019050612cbd5f830186612788565b612cca6020830185612788565b612cd76040830184612788565b949350505050565b7f696e697469616c697365640000000000000000000000000000000000000000005f82015250565b5f612d13600b836125e6565b9150612d1e82612cdf565b602082019050919050565b5f6020820190508181035f830152612d4081612d07565b9050919050565b5f612d51826126e4565b9150612d5c836126e4565b9250828201905080821115612d7457612d73612b44565b5b92915050565b5f604082019050612d8d5f830185612788565b612d9a6020830184612788565b9392505050565b612daa816126a9565b82525050565b5f61010082019050612dc45f83018b612da1565b612dd1602083018a612da1565b612dde6040830189612788565b612deb6060830188612788565b612df86080830187612760565b612e0560a083018661280c565b612e1260c083018561283d565b612e1f60e083018461283d565b9998505050505050505050565b7f5045524d49545f444541444c494e455f455850495245440000000000000000005f82015250565b5f612e606017836125e6565b9150612e6b82612e2c565b602082019050919050565b5f6020820190508181035f830152612e8d81612e54565b9050919050565b5f60c082019050612ea75f83018961283d565b612eb46020830188612da1565b612ec16040830187612da1565b612ece6060830186612788565b612edb6080830185612788565b612ee860a0830184612788565b979650505050505050565b5f81905092915050565b7f19010000000000000000000000000000000000000000000000000000000000005f82015250565b5f612f31600283612ef3565b9150612f3c82612efd565b600282019050919050565b5f819050919050565b612f61612f5c82612834565b612f47565b82525050565b5f612f7182612f25565b9150612f7d8285612f50565b602082019150612f8d8284612f50565b6020820191508190509392505050565b5f608082019050612fb05f83018761283d565b612fbd602083018661280c565b612fca604083018561283d565b612fd7606083018461283d565b95945050505050565b7f494e56414c49445f5349474e45520000000000000000000000000000000000005f82015250565b5f613014600e836125e6565b915061301f82612fe0565b602082019050919050565b5f6020820190508181035f83015261304181613008565b9050919050565b5f81905092915050565b5f819050815f5260205f209050919050565b5f815461307081612b14565b61307a8186613048565b9450600182165f811461309457600181146130a9576130db565b60ff19831686528115158202860193506130db565b6130b285613052565b5f5b838110156130d3578154818901526001820191506020810190506130b4565b838801955050505b50505092915050565b5f6130ef8284613064565b915081905092915050565b5f60a08201905061310d5f83018861283d565b61311a602083018761283d565b613127604083018661283d565b6131346060830185612788565b6131416080830184612da1565b9695505050505050565b7f5452414e534645525f4641494c454400000000000000000000000000000000005f82015250565b5f61317f600f836125e6565b915061318a8261314b565b602082019050919050565b5f6020820190508181035f8301526131ac81613173565b9050919050565b7f5452414e534645525f46524f4d5f4641494c45440000000000000000000000005f82015250565b5f6131e76014836125e6565b91506131f2826131b3565b602082019050919050565b5f6020820190508181035f830152613214816131db565b905091905056fea2646970667358221220bdc07f4e98e23c0f310b3283bba20afb45b789dafa10b8a081f3b337ddfac2e964736f6c63430008140033","linkReferences":{}},"methodIdentifiers":{"DOMAIN_SEPARATOR()":"3644e515","allowance(address,address)":"dd62ed3e","approve(address,uint256)":"095ea7b3","balanceOf(address)":"70a08231","burn(uint256)":"42966c68","decimals()":"313ce567","getMintableForReserveAmount(uint256)":"703cb372","getPredictedBurn(uint256)":"845d5ccc","initialise()":"592e6f59","k()":"b4f40c61","mint(uint256)":"a0712d68","name()":"06fdde03","nonces(address)":"7ecebe00","permit(address,address,uint256,uint256,uint8,bytes32,bytes32)":"d505accf","permitAndMint(uint256,uint256,uint256,uint8,bytes32,bytes32)":"b05aa109","reserve()":"cd3293de","reserveBalance()":"a10954fe","symbol()":"95d89b41","totalSupply()":"18160ddd","transfer(address,uint256)":"a9059cbb","transferFrom(address,address,uint256)":"23b872dd"},"id":18}