{"abi":[{"type":"constructor","inputs":[{"name":"_usds","type":"address","internalType":"address"},{"name":"_usdc","type":"address","internalType":"address"},{"name":"_usdt","type":"address","internalType":"address"}],"stateMutability":"nonpayable"},{"type":"function","name":"DOMAIN_SEPARATOR","inputs":[],"outputs":[{"name":"","type":"bytes32","internalType":"bytes32"}],"stateMutability":"view"},{"type":"function","name":"PERMIT_TYPEHASH","inputs":[],"outputs":[{"name":"","type":"bytes32","internalType":"bytes32"}],"stateMutability":"view"},{"type":"function","name":"allowance","inputs":[{"name":"","type":"address","internalType":"address"},{"name":"","type":"address","internalType":"address"}],"outputs":[{"name":"","type":"uint256","internalType":"uint256"}],"stateMutability":"view"},{"type":"function","name":"approve","inputs":[{"name":"spender","type":"address","internalType":"address"},{"name":"amount","type":"uint256","internalType":"uint256"}],"outputs":[{"name":"","type":"bool","internalType":"bool"}],"stateMutability":"nonpayable"},{"type":"function","name":"balanceOf","inputs":[{"name":"","type":"address","internalType":"address"}],"outputs":[{"name":"","type":"uint256","internalType":"uint256"}],"stateMutability":"view"},{"type":"function","name":"burn","inputs":[{"name":"token","type":"address","internalType":"address"},{"name":"burnAmount","type":"uint256","internalType":"uint256"}],"outputs":[],"stateMutability":"nonpayable"},{"type":"function","name":"decimals","inputs":[],"outputs":[{"name":"","type":"uint8","internalType":"uint8"}],"stateMutability":"view"},{"type":"function","name":"getMintableForReserveAmount","inputs":[{"name":"token","type":"address","internalType":"address"},{"name":"amount","type":"uint256","internalType":"uint256"}],"outputs":[{"name":"amountToMint","type":"uint256","internalType":"uint256"}],"stateMutability":"view"},{"type":"function","name":"getPredictedBurn","inputs":[{"name":"token","type":"address","internalType":"address"},{"name":"burnAmount","type":"uint256","internalType":"uint256"}],"outputs":[{"name":"tokenAmount","type":"uint256","internalType":"uint256"}],"stateMutability":"view"},{"type":"function","name":"getSupportedTokens","inputs":[],"outputs":[{"name":"","type":"address[]","internalType":"address[]"}],"stateMutability":"view"},{"type":"function","name":"getTokenBalance","inputs":[{"name":"token","type":"address","internalType":"address"}],"outputs":[{"name":"","type":"uint256","internalType":"uint256"}],"stateMutability":"view"},{"type":"function","name":"initialise","inputs":[],"outputs":[],"stateMutability":"nonpayable"},{"type":"function","name":"k","inputs":[],"outputs":[{"name":"","type":"uint256","internalType":"uint256"}],"stateMutability":"view"},{"type":"function","name":"mint","inputs":[{"name":"token","type":"address","internalType":"address"},{"name":"amount","type":"uint256","internalType":"uint256"}],"outputs":[],"stateMutability":"nonpayable"},{"type":"function","name":"name","inputs":[],"outputs":[{"name":"","type":"string","internalType":"string"}],"stateMutability":"view"},{"type":"function","name":"nonces","inputs":[{"name":"","type":"address","internalType":"address"}],"outputs":[{"name":"","type":"uint256","internalType":"uint256"}],"stateMutability":"view"},{"type":"function","name":"permit","inputs":[{"name":"owner","type":"address","internalType":"address"},{"name":"spender","type":"address","internalType":"address"},{"name":"value","type":"uint256","internalType":"uint256"},{"name":"deadline","type":"uint256","internalType":"uint256"},{"name":"v","type":"uint8","internalType":"uint8"},{"name":"r","type":"bytes32","internalType":"bytes32"},{"name":"s","type":"bytes32","internalType":"bytes32"}],"outputs":[],"stateMutability":"nonpayable"},{"type":"function","name":"permitAndMint","inputs":[{"name":"token","type":"address","internalType":"address"},{"name":"amount","type":"uint256","internalType":"uint256"},{"name":"deadline","type":"uint256","internalType":"uint256"},{"name":"v","type":"uint8","internalType":"uint8"},{"name":"r","type":"bytes32","internalType":"bytes32"},{"name":"s","type":"bytes32","internalType":"bytes32"}],"outputs":[],"stateMutability":"nonpayable"},{"type":"function","name":"reserves","inputs":[{"name":"","type":"address","internalType":"address"}],"outputs":[{"name":"token","type":"address","internalType":"address"},{"name":"balance","type":"uint256","internalType":"uint256"},{"name":"decimals","type":"uint8","internalType":"uint8"},{"name":"supportsPermit","type":"bool","internalType":"bool"}],"stateMutability":"view"},{"type":"function","name":"supportedTokens","inputs":[{"name":"","type":"uint256","internalType":"uint256"}],"outputs":[{"name":"","type":"address","internalType":"address"}],"stateMutability":"view"},{"type":"function","name":"supportsPermit","inputs":[{"name":"token","type":"address","internalType":"address"}],"outputs":[{"name":"","type":"bool","internalType":"bool"}],"stateMutability":"view"},{"type":"function","name":"symbol","inputs":[],"outputs":[{"name":"","type":"string","internalType":"string"}],"stateMutability":"view"},{"type":"function","name":"totalReserveBalance","inputs":[],"outputs":[{"name":"","type":"uint256","internalType":"uint256"}],"stateMutability":"view"},{"type":"function","name":"totalSupply","inputs":[],"outputs":[{"name":"","type":"uint256","internalType":"uint256"}],"stateMutability":"view"},{"type":"function","name":"transfer","inputs":[{"name":"to","type":"address","internalType":"address"},{"name":"amount","type":"uint256","internalType":"uint256"}],"outputs":[{"name":"","type":"bool","internalType":"bool"}],"stateMutability":"nonpayable"},{"type":"function","name":"transferFrom","inputs":[{"name":"from","type":"address","internalType":"address"},{"name":"to","type":"address","internalType":"address"},{"name":"amount","type":"uint256","internalType":"uint256"}],"outputs":[{"name":"","type":"bool","internalType":"bool"}],"stateMutability":"nonpayable"},{"type":"event","name":"Approval","inputs":[{"name":"owner","type":"address","indexed":true,"internalType":"address"},{"name":"spender","type":"address","indexed":true,"internalType":"address"},{"name":"amount","type":"uint256","indexed":false,"internalType":"uint256"}],"anonymous":false},{"type":"event","name":"DealBurned","inputs":[{"name":"learner","type":"address","indexed":true,"internalType":"address"},{"name":"amountBurned","type":"uint256","indexed":false,"internalType":"uint256"},{"name":"amountReturned","type":"uint256","indexed":false,"internalType":"uint256"},{"name":"tokenReturned","type":"address","indexed":false,"internalType":"address"},{"name":"e","type":"uint256","indexed":false,"internalType":"uint256"}],"anonymous":false},{"type":"event","name":"DealMinted","inputs":[{"name":"learner","type":"address","indexed":true,"internalType":"address"},{"name":"amountMinted","type":"uint256","indexed":false,"internalType":"uint256"},{"name":"amountDeposited","type":"uint256","indexed":false,"internalType":"uint256"},{"name":"tokenDeposited","type":"address","indexed":false,"internalType":"address"}],"anonymous":false},{"type":"event","name":"Transfer","inputs":[{"name":"from","type":"address","indexed":true,"internalType":"address"},{"name":"to","type":"address","indexed":true,"internalType":"address"},{"name":"amount","type":"uint256","indexed":false,"internalType":"uint256"}],"anonymous":false}],"bytecode":{"object":"0x60e060405234801562000010575f80fd5b5060405162004750380380620047508339818101604052810190620000369190620003a0565b6040518060400160405280600481526020017f4445414c000000000000000000000000000000000000000000000000000000008152506040518060400160405280600481526020017f4445414c000000000000000000000000000000000000000000000000000000008152506012825f9081620000b491906200065d565b508160019081620000c691906200065d565b508060ff1660808160ff16815250504660a08181525050620000ed6200013e60201b60201c565b60c081815250505050506200010c8360126001620001cc60201b60201c565b620001218260066001620001cc60201b60201c565b620001358160065f620001cc60201b60201c565b50505062000898565b5f7f8b73c3c69bb8fe3d512ecc4cf759cc79239f7b179b0ffacaa9a75d522b39400f5f604051620001709190620007e9565b60405180910390207fc89efdaa54c0f20c7adf612882df0950f5a951637e0307cdcb4c672f298b8bc64630604051602001620001b19594939291906200083d565b60405160208183030381529060405280519060200120905090565b60405180608001604052808473ffffffffffffffffffffffffffffffffffffffff1681526020015f81526020018360ff16815260200182151581525060065f8573ffffffffffffffffffffffffffffffffffffffff1673ffffffffffffffffffffffffffffffffffffffff1681526020019081526020015f205f820151815f015f6101000a81548173ffffffffffffffffffffffffffffffffffffffff021916908373ffffffffffffffffffffffffffffffffffffffff160217905550602082015181600101556040820151816002015f6101000a81548160ff021916908360ff16021790555060608201518160020160016101000a81548160ff021916908315150217905550905050600783908060018154018082558091505060019003905f5260205f20015f9091909190916101000a81548173ffffffffffffffffffffffffffffffffffffffff021916908373ffffffffffffffffffffffffffffffffffffffff160217905550505050565b5f80fd5b5f73ffffffffffffffffffffffffffffffffffffffff82169050919050565b5f6200036a826200033f565b9050919050565b6200037c816200035e565b811462000387575f80fd5b50565b5f815190506200039a8162000371565b92915050565b5f805f60608486031215620003ba57620003b96200033b565b5b5f620003c9868287016200038a565b9350506020620003dc868287016200038a565b9250506040620003ef868287016200038a565b9150509250925092565b5f81519050919050565b7f4e487b71000000000000000000000000000000000000000000000000000000005f52604160045260245ffd5b7f4e487b71000000000000000000000000000000000000000000000000000000005f52602260045260245ffd5b5f60028204905060018216806200047557607f821691505b6020821081036200048b576200048a62000430565b5b50919050565b5f819050815f5260205f209050919050565b5f6020601f8301049050919050565b5f82821b905092915050565b5f60088302620004ef7fffffffffffffffffffffffffffffffffffffffffffffffffffffffffffffffff82620004b2565b620004fb8683620004b2565b95508019841693508086168417925050509392505050565b5f819050919050565b5f819050919050565b5f620005456200053f620005398462000513565b6200051c565b62000513565b9050919050565b5f819050919050565b620005608362000525565b620005786200056f826200054c565b848454620004be565b825550505050565b5f90565b6200058e62000580565b6200059b81848462000555565b505050565b5b81811015620005c257620005b65f8262000584565b600181019050620005a1565b5050565b601f8211156200061157620005db8162000491565b620005e684620004a3565b81016020851015620005f6578190505b6200060e6200060585620004a3565b830182620005a0565b50505b505050565b5f82821c905092915050565b5f620006335f198460080262000616565b1980831691505092915050565b5f6200064d838362000622565b9150826002028217905092915050565b6200066882620003f9565b67ffffffffffffffff81111562000684576200068362000403565b5b6200069082546200045d565b6200069d828285620005c6565b5f60209050601f831160018114620006d3575f8415620006be578287015190505b620006ca858262000640565b86555062000739565b601f198416620006e38662000491565b5f5b828110156200070c57848901518255600182019150602085019450602081019050620006e5565b868310156200072c578489015162000728601f89168262000622565b8355505b6001600288020188555050505b505050505050565b5f81905092915050565b5f819050815f5260205f209050919050565b5f81546200076b816200045d565b62000777818662000741565b9450600182165f8114620007945760018114620007aa57620007e0565b60ff1983168652811515820286019350620007e0565b620007b5856200074b565b5f5b83811015620007d857815481890152600182019150602081019050620007b7565b838801955050505b50505092915050565b5f620007f682846200075d565b915081905092915050565b5f819050919050565b620008158162000801565b82525050565b620008268162000513565b82525050565b62000837816200035e565b82525050565b5f60a082019050620008525f8301886200080a565b6200086160208301876200080a565b6200087060408301866200080a565b6200087f60608301856200081b565b6200088e60808301846200082c565b9695505050505050565b60805160a05160c051613e8d620008c35f395f61099301525f61095f01525f61093a0152613e8d5ff3fe608060405234801561000f575f80fd5b506004361061018c575f3560e01c80639bc6736c116100dc578063c625562611610095578063d505accf1161006f578063d505accf146104ac578063d66bd524146104c8578063dd62ed3e146104fb578063fd30f2161461052b5761018c565b8063c625562614610440578063c89a204c14610470578063d3c7c2c71461048e5761018c565b80639bc6736c1461035a5780639dc29fac1461038a578063a9059cbb146103a6578063b4f40c61146103d6578063bcd12a57146103f4578063bf3304b2146104245761018c565b80633644e51511610149578063592e6f5911610123578063592e6f59146102d257806370a08231146102dc5780637ecebe001461030c57806395d89b411461033c5761018c565b80633644e515146102685780633aecd0e31461028657806340c10f19146102b65761018c565b806306fdde0314610190578063095ea7b3146101ae57806318160ddd146101de57806323b872dd146101fc57806330adf81f1461022c578063313ce5671461024a575b5f80fd5b61019861055b565b6040516101a59190612ec4565b60405180910390f35b6101c860048036038101906101c39190612f75565b6105e6565b6040516101d59190612fcd565b60405180910390f35b6101e66106d3565b6040516101f39190612ff5565b60405180910390f35b6102166004803603810190610211919061300e565b6106d9565b6040516102239190612fcd565b60405180910390f35b610234610914565b6040516102419190613076565b60405180910390f35b610252610938565b60405161025f91906130aa565b60405180910390f35b61027061095c565b60405161027d9190613076565b60405180910390f35b6102a0600480360381019061029b91906130c3565b6109b8565b6040516102ad9190612ff5565b60405180910390f35b6102d060048036038101906102cb9190612f75565b610a01565b005b6102da610c9b565b005b6102f660048036038101906102f191906130c3565b610dec565b6040516103039190612ff5565b60405180910390f35b610326600480360381019061032191906130c3565b610e01565b6040516103339190612ff5565b60405180910390f35b610344610e16565b6040516103519190612ec4565b60405180910390f35b610374600480360381019061036f9190612f75565b610ea2565b6040516103819190612ff5565b60405180910390f35b6103a4600480360381019061039f9190612f75565b610f4d565b005b6103c060048036038101906103bb9190612f75565b61125e565b6040516103cd9190612fcd565b60405180910390f35b6103de61136b565b6040516103eb9190612ff5565b60405180910390f35b61040e600480360381019061040991906130c3565b611371565b60405161041b9190612fcd565b60405180910390f35b61043e60048036038101906104399190613142565b6113c7565b005b61045a600480360381019061045591906131cb565b6114d8565b6040516104679190613205565b60405180910390f35b610478611513565b6040516104859190612ff5565b60405180910390f35b610496611519565b6040516104a391906132d5565b60405180910390f35b6104c660048036038101906104c191906132f5565b6115a4565b005b6104e260048036038101906104dd91906130c3565b611896565b6040516104f29493929190613392565b60405180910390f35b610515600480360381019061051091906133d5565b6118fa565b6040516105229190612ff5565b60405180910390f35b61054560048036038101906105409190612f75565b61191a565b6040516105529190612ff5565b60405180910390f35b5f805461056790613440565b80601f016020809104026020016040519081016040528092919081815260200182805461059390613440565b80156105de5780601f106105b5576101008083540402835291602001916105de565b820191905f5260205f20905b8154815290600101906020018083116105c157829003601f168201915b505050505081565b5f8160045f3373ffffffffffffffffffffffffffffffffffffffff1673ffffffffffffffffffffffffffffffffffffffff1681526020019081526020015f205f8573ffffffffffffffffffffffffffffffffffffffff1673ffffffffffffffffffffffffffffffffffffffff1681526020019081526020015f20819055508273ffffffffffffffffffffffffffffffffffffffff163373ffffffffffffffffffffffffffffffffffffffff167f8c5be1e5ebec7d5bd14f71427d1e84f3dd0314c0f7b2291e5b200ac8c7c3b925846040516106c19190612ff5565b60405180910390a36001905092915050565b60025481565b5f8060045f8673ffffffffffffffffffffffffffffffffffffffff1673ffffffffffffffffffffffffffffffffffffffff1681526020019081526020015f205f3373ffffffffffffffffffffffffffffffffffffffff1673ffffffffffffffffffffffffffffffffffffffff1681526020019081526020015f205490507fffffffffffffffffffffffffffffffffffffffffffffffffffffffffffffffff8114610806578281610789919061349d565b60045f8773ffffffffffffffffffffffffffffffffffffffff1673ffffffffffffffffffffffffffffffffffffffff1681526020019081526020015f205f3373ffffffffffffffffffffffffffffffffffffffff1673ffffffffffffffffffffffffffffffffffffffff1681526020019081526020015f20819055505b8260035f8773ffffffffffffffffffffffffffffffffffffffff1673ffffffffffffffffffffffffffffffffffffffff1681526020019081526020015f205f828254610852919061349d565b925050819055508260035f8673ffffffffffffffffffffffffffffffffffffffff1673ffffffffffffffffffffffffffffffffffffffff1681526020019081526020015f205f82825401925050819055508373ffffffffffffffffffffffffffffffffffffffff168573ffffffffffffffffffffffffffffffffffffffff167fddf252ad1be2c89b69c2b068fc378daa952ba7f163c4a11628f55a4df523b3ef856040516109009190612ff5565b60405180910390a360019150509392505050565b7f6e71edae12b1b97f4d1f60370fef10105fa2faae0126114a169c64845d6126c981565b7f000000000000000000000000000000000000000000000000000000000000000081565b5f7f000000000000000000000000000000000000000000000000000000000000000046146109915761098c6119b8565b6109b3565b7f00000000000000000000000000000000000000000000000000000000000000005b905090565b5f60065f8373ffffffffffffffffffffffffffffffffffffffff1673ffffffffffffffffffffffffffffffffffffffff1681526020019081526020015f20600101549050919050565b60095f9054906101000a900460ff16610a4f576040517f08c379a0000000000000000000000000000000000000000000000000000000008152600401610a469061351a565b60405180910390fd5b5f73ffffffffffffffffffffffffffffffffffffffff1660065f8473ffffffffffffffffffffffffffffffffffffffff1673ffffffffffffffffffffffffffffffffffffffff1681526020019081526020015f205f015f9054906101000a900473ffffffffffffffffffffffffffffffffffffffff1673ffffffffffffffffffffffffffffffffffffffff1603610b1b576040517f08c379a0000000000000000000000000000000000000000000000000000000008152600401610b1290613582565b60405180910390fd5b610b2782333084611a42565b5f610b7e8260065f8673ffffffffffffffffffffffffffffffffffffffff1673ffffffffffffffffffffffffffffffffffffffff1681526020019081526020015f206002015f9054906101000a900460ff16611b02565b90505f610bb7600854670de0b6b3a764000084600854610b9e91906135a0565b610ba891906135d3565b610bb29190613641565b611b43565b90505f81612710610bc891906135d3565b90508360065f8773ffffffffffffffffffffffffffffffffffffffff1673ffffffffffffffffffffffffffffffffffffffff1681526020019081526020015f206001015f828254610c1991906135a0565b925050819055508260085f828254610c3191906135a0565b92505081905550610c423382611b6a565b3373ffffffffffffffffffffffffffffffffffffffff167fe601627a5553bdaf5f7147381c5c40f1f9c83a3f8e1d2a2bb3ad68e5d9d6b0df828688604051610c8c93929190613671565b60405180910390a25050505050565b60095f9054906101000a900460ff1615610cea576040517f08c379a0000000000000000000000000000000000000000000000000000000008152600401610ce1906136f0565b60405180910390fd5b5f60075f81548110610cff57610cfe61370e565b5b905f5260205f20015f9054906101000a900473ffffffffffffffffffffffffffffffffffffffff169050610d3d813330670de0b6b3a7640000611a42565b670de0b6b3a764000060065f8373ffffffffffffffffffffffffffffffffffffffff1673ffffffffffffffffffffffffffffffffffffffff1681526020019081526020015f206001015f828254610d9491906135a0565b92505081905550670de0b6b3a764000060085f828254610db491906135a0565b92505081905550600160095f6101000a81548160ff021916908315150217905550610de93069021e27c1806e59a40000611b6a565b50565b6003602052805f5260405f205f915090505481565b6005602052805f5260405f205f915090505481565b60018054610e2390613440565b80601f0160208091040260200160405190810160405280929190818152602001828054610e4f90613440565b8015610e9a5780601f10610e7157610100808354040283529160200191610e9a565b820191905f5260205f20905b815481529060010190602001808311610e7d57829003601f168201915b505050505081565b5f80610efa8360065f8773ffffffffffffffffffffffffffffffffffffffff1673ffffffffffffffffffffffffffffffffffffffff1681526020019081526020015f206002015f9054906101000a900460ff16611b02565b90505f610f33600854670de0b6b3a764000084600854610f1a91906135a0565b610f2491906135d3565b610f2e9190613641565b611b43565b905080612710610f4391906135d3565b9250505092915050565b60095f9054906101000a900460ff16610f9b576040517f08c379a0000000000000000000000000000000000000000000000000000000008152600401610f929061351a565b60405180910390fd5b5f73ffffffffffffffffffffffffffffffffffffffff1660065f8473ffffffffffffffffffffffffffffffffffffffff1673ffffffffffffffffffffffffffffffffffffffff1681526020019081526020015f205f015f9054906101000a900473ffffffffffffffffffffffffffffffffffffffff1673ffffffffffffffffffffffffffffffffffffffff1603611067576040517f08c379a000000000000000000000000000000000000000000000000000000000815260040161105e90613582565b60405180910390fd5b5f61107182611c35565b90505f81670de0b6b3a764000060085461108b91906135d3565b6110959190613641565b6008546110a2919061349d565b90505f6110fb8260065f8873ffffffffffffffffffffffffffffffffffffffff1673ffffffffffffffffffffffffffffffffffffffff1681526020019081526020015f206002015f9054906101000a900460ff16611c69565b90508060065f8773ffffffffffffffffffffffffffffffffffffffff1673ffffffffffffffffffffffffffffffffffffffff1681526020019081526020015f20600101541015611180576040517f08c379a000000000000000000000000000000000000000000000000000000000815260040161117790613785565b60405180910390fd5b61118a3385611caa565b8160085f82825461119b919061349d565b925050819055508060065f8773ffffffffffffffffffffffffffffffffffffffff1673ffffffffffffffffffffffffffffffffffffffff1681526020019081526020015f206001015f8282546111f1919061349d565b92505081905550611203853383611d75565b3373ffffffffffffffffffffffffffffffffffffffff167fd02263e07ccd87d64078e8e699d7ba1c94b504a5502bab1b35de9141d68acae68583888760405161124f94939291906137a3565b60405180910390a25050505050565b5f8160035f3373ffffffffffffffffffffffffffffffffffffffff1673ffffffffffffffffffffffffffffffffffffffff1681526020019081526020015f205f8282546112ab919061349d565b925050819055508160035f8573ffffffffffffffffffffffffffffffffffffffff1673ffffffffffffffffffffffffffffffffffffffff1681526020019081526020015f205f82825401925050819055508273ffffffffffffffffffffffffffffffffffffffff163373ffffffffffffffffffffffffffffffffffffffff167fddf252ad1be2c89b69c2b068fc378daa952ba7f163c4a11628f55a4df523b3ef846040516113599190612ff5565b60405180910390a36001905092915050565b61271081565b5f60065f8373ffffffffffffffffffffffffffffffffffffffff1673ffffffffffffffffffffffffffffffffffffffff1681526020019081526020015f2060020160019054906101000a900460ff169050919050565b60065f8773ffffffffffffffffffffffffffffffffffffffff1673ffffffffffffffffffffffffffffffffffffffff1681526020019081526020015f2060020160019054906101000a900460ff16611454576040517f08c379a000000000000000000000000000000000000000000000000000000000815260040161144b90613830565b60405180910390fd5b8573ffffffffffffffffffffffffffffffffffffffff1663d505accf333088888888886040518863ffffffff1660e01b8152600401611499979695949392919061384e565b5f604051808303815f87803b1580156114b0575f80fd5b505af11580156114c2573d5f803e3d5ffd5b505050506114d08686610a01565b505050505050565b600781815481106114e7575f80fd5b905f5260205f20015f915054906101000a900473ffffffffffffffffffffffffffffffffffffffff1681565b60085481565b6060600780548060200260200160405190810160405280929190818152602001828054801561159a57602002820191905f5260205f20905b815f9054906101000a900473ffffffffffffffffffffffffffffffffffffffff1673ffffffffffffffffffffffffffffffffffffffff1681526020019060010190808311611551575b5050505050905090565b428410156115e7576040517f08c379a00000000000000000000000000000000000000000000000000000000081526004016115de90613905565b60405180910390fd5b5f6115f061095c565b7f6e71edae12b1b97f4d1f60370fef10105fa2faae0126114a169c64845d6126c989898960055f8e73ffffffffffffffffffffffffffffffffffffffff1673ffffffffffffffffffffffffffffffffffffffff1681526020019081526020015f205f815480929190600101919050558a60405160200161167596959493929190613923565b6040516020818303038152906040528051906020012060405160200161169c9291906139f6565b6040516020818303038152906040528051906020012090505f6001828686866040515f81526020016040526040516116d79493929190613a2c565b6020604051602081039080840390855afa1580156116f7573d5f803e3d5ffd5b5050506020604051035190505f73ffffffffffffffffffffffffffffffffffffffff168173ffffffffffffffffffffffffffffffffffffffff161415801561176a57508873ffffffffffffffffffffffffffffffffffffffff168173ffffffffffffffffffffffffffffffffffffffff16145b6117a9576040517f08c379a00000000000000000000000000000000000000000000000000000000081526004016117a090613ab9565b60405180910390fd5b8660045f8373ffffffffffffffffffffffffffffffffffffffff1673ffffffffffffffffffffffffffffffffffffffff1681526020019081526020015f205f8a73ffffffffffffffffffffffffffffffffffffffff1673ffffffffffffffffffffffffffffffffffffffff1681526020019081526020015f208190555050508573ffffffffffffffffffffffffffffffffffffffff168773ffffffffffffffffffffffffffffffffffffffff167f8c5be1e5ebec7d5bd14f71427d1e84f3dd0314c0f7b2291e5b200ac8c7c3b925876040516118859190612ff5565b60405180910390a350505050505050565b6006602052805f5260405f205f91509050805f015f9054906101000a900473ffffffffffffffffffffffffffffffffffffffff1690806001015490806002015f9054906101000a900460ff16908060020160019054906101000a900460ff16905084565b6004602052815f5260405f20602052805f5260405f205f91509150505481565b5f8061192583611c35565b90505f81670de0b6b3a764000060085461193f91906135d3565b6119499190613641565b600854611956919061349d565b90506119ae8160065f8873ffffffffffffffffffffffffffffffffffffffff1673ffffffffffffffffffffffffffffffffffffffff1681526020019081526020015f206002015f9054906101000a900460ff16611c69565b9250505092915050565b5f7f8b73c3c69bb8fe3d512ecc4cf759cc79239f7b179b0ffacaa9a75d522b39400f5f6040516119e89190613b73565b60405180910390207fc89efdaa54c0f20c7adf612882df0950f5a951637e0307cdcb4c672f298b8bc64630604051602001611a27959493929190613b89565b60405160208183030381529060405280519060200120905090565b5f6040517f23b872dd00000000000000000000000000000000000000000000000000000000815273ffffffffffffffffffffffffffffffffffffffff8516600482015273ffffffffffffffffffffffffffffffffffffffff841660248201528260448201525f806064835f8a5af1915050611abc81611e18565b611afb576040517f08c379a0000000000000000000000000000000000000000000000000000000008152600401611af290613c24565b60405180910390fd5b5050505050565b5f60128260ff1603611b1657829050611b3d565b816012611b239190613c42565b600a611b2f9190613da5565b83611b3a91906135d3565b90505b92915050565b5f806040518060200160405280848152509050611b5f81611e5a565b5f0151915050919050565b8060025f828254611b7b91906135a0565b925050819055508060035f8473ffffffffffffffffffffffffffffffffffffffff1673ffffffffffffffffffffffffffffffffffffffff1681526020019081526020015f205f82825401925050819055508173ffffffffffffffffffffffffffffffffffffffff165f73ffffffffffffffffffffffffffffffffffffffff167fddf252ad1be2c89b69c2b068fc378daa952ba7f163c4a11628f55a4df523b3ef83604051611c299190612ff5565b60405180910390a35050565b5f80604051806020016040528061271085611c509190613641565b8152509050611c5e81611eaa565b5f0151915050919050565b5f60128260ff1603611c7d57829050611ca4565b816012611c8a9190613c42565b600a611c969190613da5565b83611ca19190613641565b90505b92915050565b8060035f8473ffffffffffffffffffffffffffffffffffffffff1673ffffffffffffffffffffffffffffffffffffffff1681526020019081526020015f205f828254611cf6919061349d565b925050819055508060025f82825403925050819055505f73ffffffffffffffffffffffffffffffffffffffff168273ffffffffffffffffffffffffffffffffffffffff167fddf252ad1be2c89b69c2b068fc378daa952ba7f163c4a11628f55a4df523b3ef83604051611d699190612ff5565b60405180910390a35050565b5f6040517fa9059cbb00000000000000000000000000000000000000000000000000000000815273ffffffffffffffffffffffffffffffffffffffff841660048201528260248201525f806044835f895af1915050611dd381611e18565b611e12576040517f08c379a0000000000000000000000000000000000000000000000000000000008152600401611e0990613e39565b60405180910390fd5b50505050565b5f3d82611e2757805f803e805ffd5b8060208114611e3f575f8114611e4e575f9250611e53565b815f803e5f5115159250611e53565b600192505b5050919050565b611e62612e28565b5f6714057b7ef767814f670de0b6b3a7640000611e7e85611f20565b5f01510281611e9057611e8f613614565b5b049050604051806020016040528082815250915050919050565b611eb2612e28565b6804cf46d8192b672ecc825f015110611ec9575f80fd5b5f6714057b7ef767814f835f01510290505f6040518060200160405280670de0b6b3a76400006706f05b59d3b20000850181611f0857611f07613614565b5b048152509050611f178161201e565b92505050919050565b611f28612e28565b670de0b6b3a7640000825f01511015611f3f575f80fd5b5f611f64670de0b6b3a7640000845f015181611f5e57611f5d613614565b5b0461207f565b90505f670de0b6b3a7640000820290505f82855f0151901c9050670de0b6b3a76400008103611fa6576040518060200160405280838152509350505050612019565b5f6706f05b59d3b2000090505b5f81111561200357670de0b6b3a764000082830281611fd557611fd4613614565b5b049150670de0b6b3a76400006002028210611ff7578083019250600182901c91505b600181901c9050611fb3565b5060405180602001604052808381525093505050505b919050565b612026612e28565b6806f05b59d3b2000000825f01511061203d575f80fd5b5f670de0b6b3a76400006080845f0151901b8161205d5761205c613614565b5b049050604051806020016040528061207483612195565b815250915050919050565b5f70010000000000000000000000000000000082106120af57608082901c91506080816120ac91906135a0565b90505b6801000000000000000082106120d657604082901c91506040816120d391906135a0565b90505b64010000000082106120f957602082901c91506020816120f691906135a0565b90505b62010000821061211a57601082901c915060108161211791906135a0565b90505b610100821061213a57600882901c915060088161213791906135a0565b90505b6010821061215957600482901c915060048161215691906135a0565b90505b6004821061217857600282901c915060028161217591906135a0565b90505b600282106121905760018161218d91906135a0565b90505b919050565b5f6f8000000000000000000000000000000090505f6f80000000000000000000000000000000831611156121de57608070016a09e667f3bcc908b2fb1366ea957d3e8202901c90505b5f6f40000000000000000000000000000000831611156122135760807001306fe0a31b7152de8d5a46305c85eded8202901c90505b5f6f20000000000000000000000000000000831611156122485760807001172b83c7d517adcdf7c8c50eb14a79208202901c90505b5f6f100000000000000000000000000000008316111561227d57608070010b5586cf9890f6298b92b71842a983648202901c90505b5f6f08000000000000000000000000000000831611156122b25760807001059b0d31585743ae7c548eb68ca417fe8202901c90505b5f6f04000000000000000000000000000000831611156122e7576080700102c9a3e778060ee6f7caca4f7a29bde98202901c90505b5f6f020000000000000000000000000000008316111561231c57608070010163da9fb33356d84a66ae336dcdfa408202901c90505b5f6f0100000000000000000000000000000083161115612351576080700100b1afa5abcbed6129ab13ec11dc95448202901c90505b5f6e8000000000000000000000000000008316111561238557608070010058c86da1c09ea1ff19d294cf2f679c8202901c90505b5f6e400000000000000000000000000000831611156123b95760807001002c605e2e8cec506d21bfc89a23a0118202901c90505b5f6e200000000000000000000000000000831611156123ed576080700100162f3904051fa128bca9c55c31e5e08202901c90505b5f6e100000000000000000000000000000831611156124215760807001000b175effdc76ba38e31671ca9397268202901c90505b5f6e08000000000000000000000000000083161115612455576080700100058ba01fb9f96d6cacd4b180917c3e8202901c90505b5f6e0400000000000000000000000000008316111561248957608070010002c5cc37da9491d0985c348c68e7b48202901c90505b5f6e020000000000000000000000000000831611156124bd5760807001000162e525ee054754457d59952920278202901c90505b5f6e010000000000000000000000000000831611156124f157608070010000b17255775c040618bf4a4ade83fd8202901c90505b5f6d8000000000000000000000000000831611156125245760807001000058b91b5bc9ae2eed81e9b7d4cfac8202901c90505b5f6d400000000000000000000000000083161115612557576080700100002c5c89d5ec6ca4d7c8acc017b7ca8202901c90505b5f6d20000000000000000000000000008316111561258a57608070010000162e43f4f831060e02d839a9d16d8202901c90505b5f6d1000000000000000000000000000831611156125bd576080700100000b1721bcfc99d9f890ea069117638202901c90505b5f6d0800000000000000000000000000831611156125f057608070010000058b90cf1e6d97f9ca14dbcc16298202901c90505b5f6d0400000000000000000000000000831611156126235760807001000002c5c863b73f016468f6bac5ca2c8202901c90505b5f6d020000000000000000000000000083161115612656576080700100000162e430e5a18f6119e3c02282a68202901c90505b5f6d0100000000000000000000000000831611156126895760807001000000b1721835514b86e6d96efd1bff8202901c90505b5f6c80000000000000000000000000831611156126bb576080700100000058b90c0b48c6be5df846c5b2f08202901c90505b5f6c40000000000000000000000000831611156126ed57608070010000002c5c8601cc6b9e94213c72737b8202901c90505b5f6c200000000000000000000000008316111561271f5760807001000000162e42fff037df38aa2b219f078202901c90505b5f6c100000000000000000000000008316111561275157608070010000000b17217fba9c739aa5819f44fa8202901c90505b5f6c08000000000000000000000000831611156127835760807001000000058b90bfcdee5acd3c1cedc8248202901c90505b5f6c04000000000000000000000000831611156127b5576080700100000002c5c85fe31f35a6a30da1be518202901c90505b5f6c02000000000000000000000000831611156127e757608070010000000162e42ff0999ce3541b9fffd08202901c90505b5f6c0100000000000000000000000083161115612819576080700100000000b17217f80f4ef5aadda455548202901c90505b5f6b8000000000000000000000008316111561284a57608070010000000058b90bfbf8479bd5a81b51ae8202901c90505b5f6b4000000000000000000000008316111561287b5760807001000000002c5c85fdf84bd62ae30a74cd8202901c90505b5f6b200000000000000000000000831611156128ac576080700100000000162e42fefb2fed257559bdaa8202901c90505b5f6b100000000000000000000000831611156128dd5760807001000000000b17217f7d5a7716bba4a9af8202901c90505b5f6b0800000000000000000000008316111561290e576080700100000000058b90bfbe9ddbac5e109ccf8202901c90505b5f6b0400000000000000000000008316111561293f57608070010000000002c5c85fdf4b15de6f17eb0e8202901c90505b5f6b020000000000000000000000831611156129705760807001000000000162e42fefa494f1478fde058202901c90505b5f6b010000000000000000000000831611156129a157608070010000000000b17217f7d20cf927c8e94d8202901c90505b5f6a8000000000000000000000831611156129d15760807001000000000058b90bfbe8f71cb4e4b33e8202901c90505b5f6a400000000000000000000083161115612a01576080700100000000002c5c85fdf477b662b269468202901c90505b5f6a200000000000000000000083161115612a3157608070010000000000162e42fefa3ae53369388d8202901c90505b5f6a100000000000000000000083161115612a61576080700100000000000b17217f7d1d351a389d418202901c90505b5f6a080000000000000000000083161115612a9157608070010000000000058b90bfbe8e8b2d3d4edf8202901c90505b5f6a040000000000000000000083161115612ac15760807001000000000002c5c85fdf4741bea6e77f8202901c90505b5f6a020000000000000000000083161115612af1576080700100000000000162e42fefa39fe95583c38202901c90505b5f6a010000000000000000000083161115612b215760807001000000000000b17217f7d1cfb72b45e38202901c90505b5f698000000000000000000083161115612b50576080700100000000000058b90bfbe8e7cc35c3f28202901c90505b5f694000000000000000000083161115612b7f57608070010000000000002c5c85fdf473e242ea398202901c90505b5f692000000000000000000083161115612bae5760807001000000000000162e42fefa39f02b772c8202901c90505b5f691000000000000000000083161115612bdd57608070010000000000000b17217f7d1cf7d83c1a8202901c90505b5f690800000000000000000083161115612c0c5760807001000000000000058b90bfbe8e7bdcbe2e8202901c90505b5f690400000000000000000083161115612c3b576080700100000000000002c5c85fdf473dea871f8202901c90505b5f690200000000000000000083161115612c6a57608070010000000000000162e42fefa39ef44d928202901c90505b5f690100000000000000000083161115612c99576080700100000000000000b17217f7d1cf79e9498202901c90505b5f6880000000000000000083161115612cc757608070010000000000000058b90bfbe8e7bce5458202901c90505b5f6840000000000000000083161115612cf55760807001000000000000002c5c85fdf473de6eca8202901c90505b5f6820000000000000000083161115612d23576080700100000000000000162e42fefa39ef366f8202901c90505b5f6810000000000000000083161115612d515760807001000000000000000b17217f7d1cf79afa8202901c90505b5f6808000000000000000083161115612d7f576080700100000000000000058b90bfbe8e7bcd6e8202901c90505b5f6804000000000000000083161115612dad57608070010000000000000002c5c85fdf473de6b38202901c90505b5f6802000000000000000083161115612ddb5760807001000000000000000162e42fefa39ef3598202901c90505b5f6801000000000000000083161115612e0957608070010000000000000000b17217f7d1cf79ac8202901c90505b670de0b6b3a764000081029050608082901c607f0381901c9050919050565b60405180602001604052805f81525090565b5f81519050919050565b5f82825260208201905092915050565b5f5b83811015612e71578082015181840152602081019050612e56565b5f8484015250505050565b5f601f19601f8301169050919050565b5f612e9682612e3a565b612ea08185612e44565b9350612eb0818560208601612e54565b612eb981612e7c565b840191505092915050565b5f6020820190508181035f830152612edc8184612e8c565b905092915050565b5f80fd5b5f73ffffffffffffffffffffffffffffffffffffffff82169050919050565b5f612f1182612ee8565b9050919050565b612f2181612f07565b8114612f2b575f80fd5b50565b5f81359050612f3c81612f18565b92915050565b5f819050919050565b612f5481612f42565b8114612f5e575f80fd5b50565b5f81359050612f6f81612f4b565b92915050565b5f8060408385031215612f8b57612f8a612ee4565b5b5f612f9885828601612f2e565b9250506020612fa985828601612f61565b9150509250929050565b5f8115159050919050565b612fc781612fb3565b82525050565b5f602082019050612fe05f830184612fbe565b92915050565b612fef81612f42565b82525050565b5f6020820190506130085f830184612fe6565b92915050565b5f805f6060848603121561302557613024612ee4565b5b5f61303286828701612f2e565b935050602061304386828701612f2e565b925050604061305486828701612f61565b9150509250925092565b5f819050919050565b6130708161305e565b82525050565b5f6020820190506130895f830184613067565b92915050565b5f60ff82169050919050565b6130a48161308f565b82525050565b5f6020820190506130bd5f83018461309b565b92915050565b5f602082840312156130d8576130d7612ee4565b5b5f6130e584828501612f2e565b91505092915050565b6130f78161308f565b8114613101575f80fd5b50565b5f81359050613112816130ee565b92915050565b6131218161305e565b811461312b575f80fd5b50565b5f8135905061313c81613118565b92915050565b5f805f805f8060c0878903121561315c5761315b612ee4565b5b5f61316989828a01612f2e565b965050602061317a89828a01612f61565b955050604061318b89828a01612f61565b945050606061319c89828a01613104565b93505060806131ad89828a0161312e565b92505060a06131be89828a0161312e565b9150509295509295509295565b5f602082840312156131e0576131df612ee4565b5b5f6131ed84828501612f61565b91505092915050565b6131ff81612f07565b82525050565b5f6020820190506132185f8301846131f6565b92915050565b5f81519050919050565b5f82825260208201905092915050565b5f819050602082019050919050565b61325081612f07565b82525050565b5f6132618383613247565b60208301905092915050565b5f602082019050919050565b5f6132838261321e565b61328d8185613228565b935061329883613238565b805f5b838110156132c85781516132af8882613256565b97506132ba8361326d565b92505060018101905061329b565b5085935050505092915050565b5f6020820190508181035f8301526132ed8184613279565b905092915050565b5f805f805f805f60e0888a0312156133105761330f612ee4565b5b5f61331d8a828b01612f2e565b975050602061332e8a828b01612f2e565b965050604061333f8a828b01612f61565b95505060606133508a828b01612f61565b94505060806133618a828b01613104565b93505060a06133728a828b0161312e565b92505060c06133838a828b0161312e565b91505092959891949750929550565b5f6080820190506133a55f8301876131f6565b6133b26020830186612fe6565b6133bf604083018561309b565b6133cc6060830184612fbe565b95945050505050565b5f80604083850312156133eb576133ea612ee4565b5b5f6133f885828601612f2e565b925050602061340985828601612f2e565b9150509250929050565b7f4e487b71000000000000000000000000000000000000000000000000000000005f52602260045260245ffd5b5f600282049050600182168061345757607f821691505b60208210810361346a57613469613413565b5b50919050565b7f4e487b71000000000000000000000000000000000000000000000000000000005f52601160045260245ffd5b5f6134a782612f42565b91506134b283612f42565b92508282039050818111156134ca576134c9613470565b5b92915050565b7f21696e697469616c6973656400000000000000000000000000000000000000005f82015250565b5f613504600c83612e44565b915061350f826134d0565b602082019050919050565b5f6020820190508181035f830152613531816134f8565b9050919050565b7f756e737570706f7274656420746f6b656e0000000000000000000000000000005f82015250565b5f61356c601183612e44565b915061357782613538565b602082019050919050565b5f6020820190508181035f83015261359981613560565b9050919050565b5f6135aa82612f42565b91506135b583612f42565b92508282019050808211156135cd576135cc613470565b5b92915050565b5f6135dd82612f42565b91506135e883612f42565b92508282026135f681612f42565b9150828204841483151761360d5761360c613470565b5b5092915050565b7f4e487b71000000000000000000000000000000000000000000000000000000005f52601260045260245ffd5b5f61364b82612f42565b915061365683612f42565b92508261366657613665613614565b5b828204905092915050565b5f6060820190506136845f830186612fe6565b6136916020830185612fe6565b61369e60408301846131f6565b949350505050565b7f696e697469616c697365640000000000000000000000000000000000000000005f82015250565b5f6136da600b83612e44565b91506136e5826136a6565b602082019050919050565b5f6020820190508181035f830152613707816136ce565b9050919050565b7f4e487b71000000000000000000000000000000000000000000000000000000005f52603260045260245ffd5b7f696e73756666696369656e74206c6971756964697479000000000000000000005f82015250565b5f61376f601683612e44565b915061377a8261373b565b602082019050919050565b5f6020820190508181035f83015261379c81613763565b9050919050565b5f6080820190506137b65f830187612fe6565b6137c36020830186612fe6565b6137d060408301856131f6565b6137dd6060830184612fe6565b95945050505050565b7f6e6f207065726d697420737570706f72740000000000000000000000000000005f82015250565b5f61381a601183612e44565b9150613825826137e6565b602082019050919050565b5f6020820190508181035f8301526138478161380e565b9050919050565b5f60e0820190506138615f83018a6131f6565b61386e60208301896131f6565b61387b6040830188612fe6565b6138886060830187612fe6565b613895608083018661309b565b6138a260a0830185613067565b6138af60c0830184613067565b98975050505050505050565b7f5045524d49545f444541444c494e455f455850495245440000000000000000005f82015250565b5f6138ef601783612e44565b91506138fa826138bb565b602082019050919050565b5f6020820190508181035f83015261391c816138e3565b9050919050565b5f60c0820190506139365f830189613067565b61394360208301886131f6565b61395060408301876131f6565b61395d6060830186612fe6565b61396a6080830185612fe6565b61397760a0830184612fe6565b979650505050505050565b5f81905092915050565b7f19010000000000000000000000000000000000000000000000000000000000005f82015250565b5f6139c0600283613982565b91506139cb8261398c565b600282019050919050565b5f819050919050565b6139f06139eb8261305e565b6139d6565b82525050565b5f613a00826139b4565b9150613a0c82856139df565b602082019150613a1c82846139df565b6020820191508190509392505050565b5f608082019050613a3f5f830187613067565b613a4c602083018661309b565b613a596040830185613067565b613a666060830184613067565b95945050505050565b7f494e56414c49445f5349474e45520000000000000000000000000000000000005f82015250565b5f613aa3600e83612e44565b9150613aae82613a6f565b602082019050919050565b5f6020820190508181035f830152613ad081613a97565b9050919050565b5f81905092915050565b5f819050815f5260205f209050919050565b5f8154613aff81613440565b613b098186613ad7565b9450600182165f8114613b235760018114613b3857613b6a565b60ff1983168652811515820286019350613b6a565b613b4185613ae1565b5f5b83811015613b6257815481890152600182019150602081019050613b43565b838801955050505b50505092915050565b5f613b7e8284613af3565b915081905092915050565b5f60a082019050613b9c5f830188613067565b613ba96020830187613067565b613bb66040830186613067565b613bc36060830185612fe6565b613bd060808301846131f6565b9695505050505050565b7f5452414e534645525f46524f4d5f4641494c45440000000000000000000000005f82015250565b5f613c0e601483612e44565b9150613c1982613bda565b602082019050919050565b5f6020820190508181035f830152613c3b81613c02565b9050919050565b5f613c4c8261308f565b9150613c578361308f565b9250828203905060ff811115613c7057613c6f613470565b5b92915050565b5f8160011c9050919050565b5f808291508390505b6001851115613ccb57808604811115613ca757613ca6613470565b5b6001851615613cb65780820291505b8081029050613cc485613c76565b9450613c8b565b94509492505050565b5f82613ce35760019050613d9e565b81613cf0575f9050613d9e565b8160018114613d065760028114613d1057613d3f565b6001915050613d9e565b60ff841115613d2257613d21613470565b5b8360020a915084821115613d3957613d38613470565b5b50613d9e565b5060208310610133831016604e8410600b8410161715613d745782820a905083811115613d6f57613d6e613470565b5b613d9e565b613d818484846001613c82565b92509050818404811115613d9857613d97613470565b5b81810290505b9392505050565b5f613daf82612f42565b9150613dba8361308f565b9250613de77fffffffffffffffffffffffffffffffffffffffffffffffffffffffffffffffff8484613cd4565b905092915050565b7f5452414e534645525f4641494c454400000000000000000000000000000000005f82015250565b5f613e23600f83612e44565b9150613e2e82613def565b602082019050919050565b5f6020820190508181035f830152613e5081613e17565b905091905056fea26469706673582212207cd40b87606f545f7b6a1b00da578be70cef241055e2a6984033318a3e494ca464736f6c63430008140033","linkReferences":{}},"methodIdentifiers":{"DOMAIN_SEPARATOR()":"3644e515","PERMIT_TYPEHASH()":"30adf81f","allowance(address,address)":"dd62ed3e","approve(address,uint256)":"095ea7b3","balanceOf(address)":"70a08231","burn(address,uint256)":"9dc29fac","decimals()":"313ce567","getMintableForReserveAmount(address,uint256)":"9bc6736c","getPredictedBurn(address,uint256)":"fd30f216","getSupportedTokens()":"d3c7c2c7","getTokenBalance(address)":"3aecd0e3","initialise()":"592e6f59","k()":"b4f40c61","mint(address,uint256)":"40c10f19","name()":"06fdde03","nonces(address)":"7ecebe00","permit(address,address,uint256,uint256,uint8,bytes32,bytes32)":"d505accf","permitAndMint(address,uint256,uint256,uint8,bytes32,bytes32)":"bf3304b2","reserves(address)":"d66bd524","supportedTokens(uint256)":"c6255626","supportsPermit(address)":"bcd12a57","symbol()":"95d89b41","totalReserveBalance()":"c89a204c","totalSupply()":"18160ddd","transfer(address,uint256)":"a9059cbb","transferFrom(address,address,uint256)":"23b872dd"},"id":15}